{
  "_format": "hh-sol-artifact-1",
  "contractName": "OurkadePlayer",
  "sourceName": "contracts/ourkade/ourkadeLogicContract/ourkadePlayer.sol",
  "abi": [
    {
      "inputs": [],
      "name": "Empty",
      "type": "error"
    },
    {
      "inputs": [],
      "name": "OutOfBounds",
      "type": "error"
    },
    {
      "inputs": [],
      "name": "CreateProfile",
      "outputs": [],
      "stateMutability": "nonpayable",
      "type": "function"
    },
    {
      "inputs": [
        {
          "internalType": "bytes32",
          "name": "key",
          "type": "bytes32"
        }
      ],
      "name": "GetPlayerProfile",
      "outputs": [
        {
          "components": [
            {
              "internalType": "bytes32",
              "name": "PlayerProfileId",
              "type": "bytes32"
            },
            {
              "internalType": "uint256",
              "name": "Tickets",
              "type": "uint256"
            },
            {
              "internalType": "uint256",
              "name": "Rewards",
              "type": "uint256"
            },
            {
              "internalType": "uint64",
              "name": "Loyalty",
              "type": "uint64"
            },
            {
              "internalType": "int32",
              "name": "Reputation",
              "type": "int32"
            },
            {
              "internalType": "uint96",
              "name": "CompetitionNonce",
              "type": "uint96"
            },
            {
              "internalType": "uint256",
              "name": "LastGameTimestamp",
              "type": "uint256"
            },
            {
              "internalType": "uint256",
              "name": "GuiltyCount",
              "type": "uint256"
            },
            {
              "internalType": "uint256",
              "name": "LastGuiltyTimestamp",
              "type": "uint256"
            },
            {
              "internalType": "uint96",
              "name": "NodeCount",
              "type": "uint96"
            },
            {
              "internalType": "enum PlayerProfileStatus",
              "name": "Status",
              "type": "uint8"
            }
          ],
          "internalType": "struct PlayerProfile",
          "name": "",
          "type": "tuple"
        }
      ],
      "stateMutability": "nonpayable",
      "type": "function"
    },
    {
      "inputs": [
        {
          "internalType": "address",
          "name": "key",
          "type": "address"
        }
      ],
      "name": "GetPlayerProfile",
      "outputs": [
        {
          "components": [
            {
              "internalType": "bytes32",
              "name": "PlayerProfileId",
              "type": "bytes32"
            },
            {
              "internalType": "uint256",
              "name": "Tickets",
              "type": "uint256"
            },
            {
              "internalType": "uint256",
              "name": "Rewards",
              "type": "uint256"
            },
            {
              "internalType": "uint64",
              "name": "Loyalty",
              "type": "uint64"
            },
            {
              "internalType": "int32",
              "name": "Reputation",
              "type": "int32"
            },
            {
              "internalType": "uint96",
              "name": "CompetitionNonce",
              "type": "uint96"
            },
            {
              "internalType": "uint256",
              "name": "LastGameTimestamp",
              "type": "uint256"
            },
            {
              "internalType": "uint256",
              "name": "GuiltyCount",
              "type": "uint256"
            },
            {
              "internalType": "uint256",
              "name": "LastGuiltyTimestamp",
              "type": "uint256"
            },
            {
              "internalType": "uint96",
              "name": "NodeCount",
              "type": "uint96"
            },
            {
              "internalType": "enum PlayerProfileStatus",
              "name": "Status",
              "type": "uint8"
            }
          ],
          "internalType": "struct PlayerProfile",
          "name": "",
          "type": "tuple"
        }
      ],
      "stateMutability": "nonpayable",
      "type": "function"
    },
    {
      "inputs": [
        {
          "internalType": "uint256",
          "name": "index",
          "type": "uint256"
        }
      ],
      "name": "GetPlayerProfileAtIndex",
      "outputs": [
        {
          "internalType": "bytes32",
          "name": "key",
          "type": "bytes32"
        }
      ],
      "stateMutability": "view",
      "type": "function"
    },
    {
      "inputs": [],
      "name": "GetPlayerProfileCount",
      "outputs": [
        {
          "internalType": "uint256",
          "name": "count",
          "type": "uint256"
        }
      ],
      "stateMutability": "view",
      "type": "function"
    },
    {
      "inputs": [
        {
          "internalType": "bytes",
          "name": "_competitionId",
          "type": "bytes"
        }
      ],
      "name": "HasAnotherMatch",
      "outputs": [
        {
          "internalType": "bool",
          "name": "",
          "type": "bool"
        }
      ],
      "stateMutability": "view",
      "type": "function"
    },
    {
      "inputs": [
        {
          "internalType": "bytes32",
          "name": "_competitionId",
          "type": "bytes32"
        },
        {
          "internalType": "uint256",
          "name": "_matchIndex",
          "type": "uint256"
        }
      ],
      "name": "MatchDisputeCalculateStatus",
      "outputs": [
        {
          "internalType": "enum MatchDisputeStatus",
          "name": "",
          "type": "uint8"
        }
      ],
      "stateMutability": "view",
      "type": "function"
    },
    {
      "inputs": [
        {
          "internalType": "bytes32",
          "name": "_competitionId",
          "type": "bytes32"
        },
        {
          "internalType": "uint256",
          "name": "_matchIndex",
          "type": "uint256"
        },
        {
          "internalType": "enum VoteType[]",
          "name": "_revealedVotes",
          "type": "uint8[]"
        }
      ],
      "name": "MatchDisputeResolve",
      "outputs": [],
      "stateMutability": "nonpayable",
      "type": "function"
    },
    {
      "inputs": [
        {
          "internalType": "bytes32",
          "name": "_competitionId",
          "type": "bytes32"
        },
        {
          "internalType": "bytes32",
          "name": "_ticketHash",
          "type": "bytes32"
        }
      ],
      "name": "RegisterForMatch",
      "outputs": [],
      "stateMutability": "nonpayable",
      "type": "function"
    },
    {
      "inputs": [
        {
          "internalType": "bytes32",
          "name": "_competitionId",
          "type": "bytes32"
        },
        {
          "internalType": "uint96",
          "name": "_nodeNumber",
          "type": "uint96"
        }
      ],
      "name": "ScoreCompetition",
      "outputs": [],
      "stateMutability": "nonpayable",
      "type": "function"
    },
    {
      "inputs": [
        {
          "internalType": "bytes32",
          "name": "_competitionId",
          "type": "bytes32"
        },
        {
          "internalType": "bytes",
          "name": "_dataPin",
          "type": "bytes"
        },
        {
          "internalType": "uint256",
          "name": "_score",
          "type": "uint256"
        }
      ],
      "name": "SubmitMatch",
      "outputs": [],
      "stateMutability": "nonpayable",
      "type": "function"
    },
    {
      "inputs": [
        {
          "internalType": "bytes32",
          "name": "key",
          "type": "bytes32"
        }
      ],
      "name": "checkPlayerProfile",
      "outputs": [
        {
          "internalType": "bool",
          "name": "",
          "type": "bool"
        }
      ],
      "stateMutability": "view",
      "type": "function"
    },
    {
      "inputs": [
        {
          "internalType": "address",
          "name": "key",
          "type": "address"
        }
      ],
      "name": "checkPlayerProfile",
      "outputs": [
        {
          "internalType": "bool",
          "name": "",
          "type": "bool"
        }
      ],
      "stateMutability": "view",
      "type": "function"
    }
  ],
  "bytecode": "0x608060405234801561001057600080fd5b50614914806100206000396000f3fe608060405234801561001057600080fd5b50600436106100af5760003560e01c80630cb31112146100b4578063104b2993146100dd57806326bfb686146100f25780634c0243061461010557806377b669221461012857806388ff03271461013b5780639160ff8c1461014e5780639bfdb5c514610161578063c4884d6014610169578063cb6902621461018a578063da1bef341461019d578063e2631543146101b0578063f63d8636146101d0575b600080fd5b6100c76100c2366004613999565b6101d8565b6040516100d491906139ff565b60405180910390f35b6100f06100eb366004613aab565b6101ef565b005b6100f0610100366004613b0c565b6101fd565b610118610113366004613999565b61020d565b60405190151581526020016100d4565b610118610136366004613c26565b610218565b610118610149366004613c67565b61022b565b6100f061015c366004613c90565b610236565b6100f0610248565b61017c610177366004613999565b610295565b6040519081526020016100d4565b6100f0610198366004613ce2565b6102a0565b6100c76101ab366004613c67565b6102aa565b6101c36101be366004613ce2565b6102bb565b6040516100d49190613d04565b61017c6102c7565b6101e061390a565b6101e9826102d6565b92915050565b6101f982826103b5565b5050565b6102088383836109b8565b505050565b60006101e9826111d0565b600061022483836111ea565b9392505050565b60006101e98261122c565b6102428484848461123f565b50505050565b33321461028b5760405162461bcd60e51b815260206004820152600c60248201526b57414c4c4554535f4f4e4c5960a01b60448201526064015b60405180910390fd5b6102936114a6565b565b60006101e9826114af565b6101f982826114c9565b6102b261390a565b6101e98261159d565b600061022483836115b1565b60006102d16116d5565b905090565b6102de61390a565b6102eb82600160006116ea565b60408051610160810182528254815260018084015460208301526002840154928201929092526003808401546001600160401b0381166060840152600160401b810490910b6080830152600160601b908190046001600160601b0390811660a0840152600485015460c0840152600585015460e0840152600685015461010084015260078501549081166101208401529193926101408501929190910460ff169081111561039b5761039b6139cc565b60018111156103ac576103ac6139cc565b90525092915050565b60006103bf61179b565b905060006103cc846117bf565b905060006103ff6040518060400160405280866001600160601b03168152602001336001600160a01b03168152506117e8565b90504282600b01541061044a5760405162461bcd60e51b81526020600482015260136024820152722822a72224a723afa1a7a6a822aa24aa24a7a760691b6044820152606401610282565b6006820154600883015410156104635761046385611842565b6000805b601084015481101561050e578284601001828154811061048957610489613d1e565b9060005260206000200154036104fc5760198501546104a89082613d4a565b84600b01546104b79190613d61565b42116104f35760405162461bcd60e51b815260206004820152600b60248201526a4541524c595f4a5544474560a81b6044820152606401610282565b6001915061050e565b8061050681613d74565b915050610467565b5060018115151461054d5760405162461bcd60e51b81526020600482015260096024820152684e4f545f4a5544474560b81b6044820152606401610282565b600e83015460ff16156106b05760005b6000878152601c860160205260409020548110156106ae576000878152601c86016020526040812080548390811061059757610597613d1e565b90600052602060002001549050600086601d016105b48a846119d0565b6040516105c19190613db1565b908152604051908190036020019020905060006002820154600160a01b900460ff1660068111156105f4576105f46139cc565b1461060057505061069c565b600061060c8a846115b1565b90506004816006811115610622576106226139cc565b03610647576040805160008152602081019091526106418b85836109b8565b50610698565b600581600681111561065b5761065b6139cc565b1415801561067b57506006816006811115610678576106786139cc565b14155b156106985760405162461bcd60e51b815260040161028290613dcd565b5050505b806106a681613d74565b91505061055d565b505b60006002840154600160901b900460ff1660048111156106d2576106d26139cc565b0361078b5760006106e48760016119fe565b6000815181106106f6576106f6613d1e565b60200260200101519050600084600901828154811061071757610717613d1e565b90600052602060002090600602019050600061075561074c8360010160019054906101000a90046001600160a01b0316611be0565b600160006116ea565b9050856003015481600201600082825461076f9190613d61565b9091555050505060118401805460ff19166001179055506107a3565b60405162461bcd60e51b815260040161028290613df6565b60006107ae33611bec565b905060006107d985600401546107d48460030160089054906101000a900460030b611bff565b611c4d565b9050808260020160008282546107ef9190613d61565b9091555060019050604051339081906000805160206148bf83398151915290610819908790613e2b565b60405180910390a460005b60088601548110156109ad57600086600801828154811061084757610847613d1e565b600091825260208220015488546001600160a01b03909116925061086b9083611c68565b90506000886009018a601b01836040516108859190613db1565b90815260200160405180910390206000815481106108a5576108a5613d1e565b90600052602060002090602091828204019190069054906101000a900460ff1660ff16815481106108d8576108d8613d1e565b6000918252602090912060069091020190506002600382015460ff166002811115610905576109056139cc565b1461099757600d890154600190603c101561095357603c8a600d015461092b9190613ef4565b9050601e603c8b600d01546109409190613f08565b1061095357610950600182613f1c565b90505b61096e61095f85611be0565b8b600101548460020154611c93565b6109788482611d77565b602d8b0154610995908590600160a01b900463ffffffff16611e3a565b505b50505080806109a590613d74565b915050610824565b505050505050505050565b60006109c261179b565b90508360006109d182866119d0565b9050600083601d01826040516109e79190613db1565b908152602001604051809103902090506000610a0384886115b1565b905060006002830154600160a01b900460ff166006811115610a2757610a276139cc565b14610a675760405162461bcd60e51b815260206004820152601060248201526f494e4143544956455f4449535055544560801b6044820152606401610282565b6001816006811115610a7b57610a7b6139cc565b03610a985760405162461bcd60e51b815260040161028290613dcd565b6000610aa3856117bf565b90506004826006811115610ab957610ab96139cc565b03610ad85760028301805460ff60a01b1916600160a21b17905561116d565b6002826006811115610aec57610aec6139cc565b1480610b0957506003826006811115610b0757610b076139cc565b145b1561116d576000805b6003850154811015610b7257336001600160a01b0316856003018281548110610b3d57610b3d613d1e565b6000918252602090912001546001600160a01b031603610b605760019150610b72565b80610b6a81613d74565b915050610b12565b5080610b905760405162461bcd60e51b815260040161028290613dcd565b801561116b576004840154885160009081908314610bc05760405162461bcd60e51b815260040161028290613f37565b60005b8b51811015610cd45760008c8281518110610be057610be0613d1e565b602002602001015190506000896004018381548110610c0157610c01613d1e565b90600052602060002090600402019050818160030160006101000a81548160ff02191690836003811115610c3757610c376139cc565b02179055506000826003811115610c5057610c506139cc565b03610c6d5760405162461bcd60e51b815260040161028290613f37565b6001826003811115610c8157610c816139cc565b03610c9857610c91600185613d61565b9350610cbf565b6002826003811115610cac57610cac6139cc565b03610cbf57610cbc600186613d61565b94505b50508080610ccc90613d74565b915050610bc3565b506001870154600090610cf39061074c906001600160a01b0316611be0565b6002890154909150600090610d149061074c906001600160a01b0316611be0565b90508b60290154851015610d2a57610d2a613f5f565b6000848411610d3a576002610d3d565b60015b90506001816003811115610d5357610d536139cc565b03610f58576000610d6985878660050154611e8d565b90508060010b8460030160088282829054906101000a900460030b610d8e9190613f75565b92506101000a81548163ffffffff021916908360030b63ffffffff1602179055506001846005016000828254610dc49190613d61565b909155505042600685015560016007850154600160601b900460ff166001811115610df157610df16139cc565b14158015610e395750602d8e0154600385810154600160c01b909204810b600160401b909204900b131580610e395750602d8e01546005850154600160e01b90910460ff1611155b15610e49578354610e4990612057565b60008e601b01610e638f610e5e886000015490565b611c68565b604051610e709190613db1565b9081526020016040518091039020905060005b8154811015610ee75760028b6009018281548110610ea357610ea3613d1e565b60009182526020909120600360069092020101805460ff19166001836002811115610ed057610ed06139cc565b021790555080610edf81613d74565b915050610e83565b508e602d0160049054906101000a900463ffffffff168460030160088282829054906101000a900460030b610f1c9190613f9c565b825463ffffffff9182166101009390930a928302919092021990911617905550505060028a01805460ff60a01b1916600360a11b179055610fbf565b602d8d01546003808401805463ffffffff600160401b9485900416939192600892610f89928692919004900b613f75565b825463ffffffff9182166101009390930a92830291909202199091161790555060028a01805460ff60a01b1916600560a01b1790555b60005b60048b01548110156111635760008b6004018281548110610fe557610fe5613d1e565b90600052602060002090600402019050600061100482600001546120d1565b90506003808084015460ff1690811115611020576110206139cc565b0361106e578f602d0160189054906101000a900460030b8160030160086101000a81548163ffffffff021916908360030b63ffffffff1602179055506110698260000154612057565b61114e565b836003811115611080576110806139cc565b60038084015460ff1690811115611099576110996139cc565b036110f8578f602d01600c9054906101000a900463ffffffff168160030160088282829054906101000a900460030b6110d29190613f75565b92506101000a81548163ffffffff021916908360030b63ffffffff16021790555061114e565b8f602d0160109054906101000a900463ffffffff168160030160088282829054906101000a900460030b61112c9190613f75565b92506101000a81548163ffffffff021916908360030b63ffffffff1602179055505b5050808061115b90613d74565b915050610fc2565b505050505050505b505b8360405161117b9190613db1565b6040518091039020336001600160a01b03167f1bf5a73da50c80e7642cf6b059b35b3068274c06310a684b0c5fbb92f2684b5960016040516111bd9190613fc3565b60405180910390a3505050505050505050565b6000806111db61179b565b905061022460018201846120df565b60006102243384848080601f01602080910402602001604051908101604052809392919081815260200183838082843760009201919091525061212f92505050565b60006101e961123a83611be0565b6111d0565b600061124961179b565b905060006112578633611c68565b9050600082601b018260405161126d9190613db1565b90815260200160405180910390209050600081600183805490506112919190613fd0565b815481106112a1576112a1613d1e565b60009182526020808320908204015460ff601f9092166101000a90041691506112c9896117bf565b90506000816009018360ff16815481106112e5576112e5613d1e565b9060005260206000209060060201905081600b0154421061133d5760405162461bcd60e51b815260206004820152601260248201527110d3d354115512551253d397d0d313d4d15160721b6044820152606401610282565b6000600382015460ff166002811115611358576113586139cc565b146113a05760405162461bcd60e51b815260206004820152601860248201527713505510d217d4d550935254d4d253d397d253959053125160421b6044820152606401610282565b81600d015481600401546113b49190613d61565b8160050154106113f65760405162461bcd60e51b815260206004820152600d60248201526c13505510d217d1561412549151609a1b6044820152606401610282565b60038101805460ff1916600117905580611411898b8361407a565b506002810187905542600582015560006002830154600160901b900460ff166004811115611441576114416139cc565b1461145e5760405162461bcd60e51b815260040161028290613df6565b4261146833611bec565b60040155600c82015460ff8085169116111561149a5761149a8a611495611490866001614134565b612137565b6121c9565b50505050505050505050565b610293336123a0565b6000806114ba61179b565b905061022460018201846123b4565b6114d43383836123de565b6115155760405162461bcd60e51b81526020600482015260126024820152714d415443485f4e4f545f454c494749424c4560701b6044820152606401610282565b600061152183336125b8565b9050600061152e846117bf565b600c81015490915060ff9081169083161061157d5760405162461bcd60e51b815260206004820152600f60248201526e13505510d217d15612105554d51151608a1b6044820152606401610282565b61158b3382600501546125f9565b61024284611495611490856001614134565b6115a561390a565b6102eb61074c83611be0565b6000806115bc61179b565b905060006115c9856117bf565b9050600082601d016115db87876119d0565b6040516115e89190613db1565b908152604051908190036020019020905060006002820154600160a01b900460ff16600681111561161b5761161b6139cc565b146116385760020154600160a01b900460ff1692506101e9915050565b82602c015483602b015483600b01546116519190613d61565b61165b9190613d61565b421061166d57600493505050506101e9565b82602b015482600b01546116819190613d61565b42106116ae5760298301546004820154106116a257600393505050506101e9565b600493505050506101e9565b60298301546004820154106116c957600293505050506101e9565b600193505050506101e9565b6000806116e061179b565b6002015492915050565b60006116f584612624565b60006116ff61179b565b600086815260038201602052604090209091508415801561173f575060016007820154600160601b900460ff16600181111561173d5761173d6139cc565b145b1561177f5760405162461bcd60e51b815260206004820152601060248201526f141493d192531157d11254d05093115160821b6044820152606401610282565b8315156000036117925761179281612677565b95945050505050565b7f3811155c0a13998f1918d4b7c42705baf10874a2b3c97697256081485ee6634790565b60006117ca826127d2565b60006117d461179b565b600093845260060160205250506040902090565b6000816000015160a01b826020015160601b60405160200161182a9291906001600160a01b03199290921682526001600160601b031916600c82015260200190565b6040516020818303038152906040526101e99061414d565b600061184d826117bf565b905060005b60098201548110156118e057600082600901828154811061187557611875613d1e565b9060005260206000209060060201905060006118aa61074c8360010160019054906101000a90046001600160a01b0316611be0565b905083600501548160010160008282546118c49190613d61565b92505081905550505080806118d890613d74565b915050611852565b5060006118eb61179b565b7f303c130e8d487dd85c87c89897117f9a0a45df93e2439e165fe87c420a40865e60009081526020828152604080832033845290915290205490915060ff161561198e57600382015460288201546000916119489160ff16611c4d565b9050600061196161074c61195c8760601c90565b611be0565b90508184600301546119739190613fd0565b8160010160008282546119869190613d61565b909155505050505b60118201805460ff19166002179055815460405160039190339060008051602061489f833981519152906119c3908790614349565b60405180910390a4505050565b604080516020810184905290810182905260609081015b604051602081830303815290604052905092915050565b60606000611a0b846117bf565b6009810154909150831115611a595760405162461bcd60e51b8152602060048201526014602482015273494e53554646494349454e545f4d41544348455360601b6044820152606401610282565b82600114611a9c5760405162461bcd60e51b815260206004820152601060248201526f155394d5541413d495115117d4d3d49560821b6044820152606401610282565b6000836001600160401b03811115611ab657611ab6613ae7565b604051908082528060200260200182016040528015611adf578160200160208202803683370190505b50905060008080805b6009860154811015611baa576002866009018281548110611b0b57611b0b613d1e565b600091825260209091206003600690920201015460ff166002811115611b3357611b336139cc565b14158015611b66575083866009018281548110611b5257611b52613d1e565b906000526020600020906006020160020154115b15611b9857856009018181548110611b8057611b80613d1e565b90600052602060002090600602016002015493508092505b80611ba281613d74565b915050611ae8565b50818482611bb781613d74565b935081518110611bc957611bc9613d1e565b602090810291909101015250919695505050505050565b6001600160a01b031690565b60006101e9611bfa83611be0565b6120d1565b6000617d008260030b1315611c1657506064919050565b614e208260030b1315611c2b5750604b919050565b610fa08260030b1315611c4057506032919050565b506000919050565b919050565b60006064611c5e60ff841685613d4a565b6102249190613ef4565b6060828260601b6040516020016119e79291909182526001600160601b031916602082015260340190565b6000611c9d61179b565b600085815260208281018152604080832087845282528083208054600f90810b600019019081900b855260018201909352922085905581546001600160801b0319166001600160801b0390911617905590505b60308101546000858152602080840181526040808320878452909152902060ff90911690611d1d90612829565b1115611d4b5760008481526020808301815260408083208684529091529020611d459061283d565b50611cf0565b611d5584846128bd565b6000948552602190910160209081526040808620948652939052919092205550565b6000611d8283611bec565b90506000611d8e61179b565b9050611dac848360030160089054906101000a900460030b85612949565b600383018054600090611dc99084906001600160401b031661451c565b82546001600160401b039182166101009390930a9283029190920219909116179055506001600160a01b0384166000908152601e8201602052604081208054859290611e1a90849061ffff16613f1c565b92506101000a81548161ffff021916908361ffff16021790555050505050565b6000611e4583611bec565b9050818160030160088282829054906101000a900460030b611e679190613f9c565b92506101000a81548163ffffffff021916908360030b63ffffffff160217905550505050565b600080611e9861179b565b90506000611ea68686613d61565b611eb09086613ef4565b611ebb906064613d4a565b90506000826029015487118015611ed55750826029015486115b15611fd357605a8260ff1610611f235760408051606081018252610ed88152611d4c6020820152614e84918101919091528560038110611f1757611f17613d1e565b6020020151905061204d565b60328260ff1610611f60576040805160608101825261051481526109c46020820152614e84918101919091528560038110611f1757611f17613d1e565b60ff821615611f9b576040805160608101825261019081526102bc6020820152614e84918101919091528560038110611f1757611f17613d1e565b60405162461bcd60e51b815260206004820152600d60248201526c2224a9a82aaa22afa2a92927a960991b6044820152606401610282565b605a8260ff1610612010576040805160608101825261138881526127106020820152614e84918101919091528560038110611f1757611f17613d1e565b60328260ff1610611f6057604080516060810182526109c481526113886020820152614e84918101919091528560038110611f1757611f17613d1e565b9695505050505050565b6000612062826120d1565b905061207b8260078301546001600160601b0316612a99565b600781018054600160601b60ff60601b199091161790556003826001600160a01b0316336001600160a01b03166000805160206148bf833981519152846040516120c59190613e2b565b60405180910390a45050565b60006101e9826000806116ea565b600182015460009081036120f5575060006101e9565b600082815260208490526040902054600184018054849290811061211b5761211b613d1e565b906000526020600020015414905092915050565b600092915050565b6121776040805160e08101825260608082526000602083018190529282018390528101829052906080820190815260200160008152602001600081525090565b506040805161012081018252600360e082019081526203078360ec1b610100830152815260ff9290921660208301523390820152600060608201819052608082018190524260a083015260c082015290565b60006121d4836117bf565b905060006121e6848460400151611c68565b600983015490915060006121f861179b565b905080601b018360405161220c9190613db1565b9081526040519081900360200190205460000361225d576040850151600885018054600181018255600091825260209091200180546001600160a01b0319166001600160a01b039092169190911790555b80601b018360405161226f9190613db1565b908152604051602091819003820190208054600180820183556000928352838320848304018054601f9093166101000a60ff81810219909416938816029290921790915560098701805491820181558252919020865187926006029091019081906122da908261453c565b5060208201516001808301805460408601516001600160a01b0316610100026001600160a81b031990911660ff9094169390931792909217909155606083015160028084019190915560808401516003840180549193909260ff199290921691849081111561234b5761234b6139cc565b021790555060a0820151600482015560c090910151600590910155600186336001600160a01b031660008051602061489f833981519152876040516123909190614349565b60405180910390a4505050505050565b6123b16123ac82611be0565b612cf3565b50565b60008260010182815481106123cb576123cb613d1e565b9060005260206000200154905092915050565b6000806123e961179b565b905060006123f686611bec565b90506000612403866117bf565b6040805180820182528881528454602091820190815282518083018b905290518184015282518082038401815260609091019092528151910120602d8501546003808601549394509192600160c01b909104820b600160401b90910490910b1361246f5761246f613f5f565b6002820154600380850154600160481b90920460010b600160401b909204900b12156124a2576000945050505050610224565b600282015460ff16156124f5576124e46124bc8860601c90565b82886040516020016124d091815260200190565b604051602081830303815290604052612d74565b6124f5576000945050505050610224565b600282015460038401546001600160401b03610100909204821691161015612524576000945050505050610224565b600061253884600001548460010154612dcb565b600284015490915060ff600160581b9091048116908216101561256357600095505050505050610224565b600283015460ff600160601b9091048116908216111561258b57600095505050505050610224565b8260050154846001015410156125a957600095505050505050610224565b50600198975050505050505050565b6000806125c361179b565b905080601b016125d38585611c68565b6040516125e09190613db1565b9081526040519081900360200190205491505092915050565b600061260483611bec565b90508181600101600082825461261a9190613fd0565b9091555050505050565b61262d816111d0565b15156001146123b15760405162461bcd60e51b8152602060048201526016602482015275141493d192531157d113d154d7d393d517d1561254d560521b6044820152606401610282565b80546000612683612df8565b9050600061268f61179b565b6001600160a01b03841660009081526024820160205260409020549091508290036126ba5750505050565b6001600160a01b038316600090815260238201602052604081205460278301549091906126e79085613fd0565b8210156127945760278301546126fd8386613fd0565b6127079190613ef4565b6030840154909150610100900460ff1661ffff821611156127395760038601805463ffffffff60401b19169055612794565b60038087015461275391600160401b909104900b82612e48565b8660030160088282829054906101000a900460030b6127729190613f9c565b92506101000a81548163ffffffff021916908360030b63ffffffff1602179055505b50506001600160a01b039092166000908152602583016020908152604080832083905560268501825280832083905560249094019052919091205550565b6127db81612f02565b15156001146123b15760405162461bcd60e51b815260206004820152601a60248201527910d3d354115512551253d397d113d154d7d393d517d1561254d560321b6044820152606401610282565b54600f81810b600160801b909204900b0390565b60006128588254600f81810b600160801b909204900b131590565b1561287657604051631ed9509560e11b815260040160405180910390fd5b508054600160801b90819004600f90810b600019019081900b60009081526001840160205260408120805491905583546001600160801b0390811692169092021790915590565b6000806128c861179b565b600085815260208083018152604080832087845290915281209192509081906128f090612829565b905060005b8181101561293e57600087815260208086018152604080832089845290915290206129209082612f1c565b61292a9084613d61565b92508061293681613d74565b9150506128f5565b5061204d8183613ef4565b60008061295461179b565b6001600160a01b0386166000908152601e8201602052604090205490915061ffff9081169084161580159061298e57506105a08461ffff16105b6129cd5760405162461bcd60e51b815260206004820152601060248201526f494e56414c49445f504c415954494d4560801b6044820152606401610282565b602f820154849061ffff821611156129e65750602f8201545b6000806129f4846001613f1c565b61ffff1690505b612a058385613f1c565b61ffff168111612a7657602f8501612a1e600183613fd0565b81548110612a2e57612a2e613d1e565b90600052602060002090600491828204019190066008029054906101000a90046001600160401b031682612a62919061451c565b915080612a6e81613d74565b9150506129fb565b50612a8d816001600160401b03166107d489612f8d565b98975050505050505050565b6000612aa483611bec565b60078101549091506001600160601b039081169083161115612af75760405162461bcd60e51b815260206004820152600c60248201526b1393d11157d253959053125160a21b6044820152606401610282565b60005b826001600160601b0316816001600160601b03161015612c6a576007820154600090612b309083906001600160601b03166145f5565b90506000612b636040518060400160405280846001600160601b03168152602001886001600160a01b03168152506117e8565b90506000612b718784612fcc565b905060005b6001820154811015612b9e57612b8c888561302b565b80612b9681613d74565b915050612b76565b506001600282015460ff166001811115612bba57612bba6139cc565b03612bc957612bc9878461318d565b6000612bd361179b565b9050612be2600a82018461320b565b6000838152600c82016020526040812081815590612c036001830182613964565b506002908101805460ff1916905583336001600160a01b03167f22dd4a5a7bc4acb43f19afd51b41edb1eb84a5e61293e1fc28c040edf0bbeb0f85604051612c4b9190614615565b60405180910390a4505050508080612c6290614780565b915050612afa565b50600781018054839190600090612c8b9084906001600160601b03166145f5565b92506101000a8154816001600160601b0302191690836001600160601b0316021790555060016004811115612cc257612cc26139cc565b836001600160a01b0316336001600160a01b03166000805160206148bf833981519152846040516119c39190613e2b565b6000612cfd61179b565b9050612d0c600182018361332c565b6000828152600382016020526040902082815560078101805460ff60601b19169055612d36612df8565b6001600160a01b038416600081815260238501602052604080822093909355915133906000805160206148bf833981519152906119c3908690613e2b565b6000806000612d838585613439565b90925090506000816004811115612d9c57612d9c6139cc565b148015612dba5750856001600160a01b0316826001600160a01b0316145b8061204d575061204d86868661347e565b600080612dd661179b565b6000938452601f01602090815260408085209585529490525050205460ff1690565b600080612e0361179b565b90508060220154816027015442612e1a9190613ef4565b1115612e3f576027810154612e2f9042613f08565b612e399042613fd0565b60228201555b60220154919050565b6000808261ffff1611612e905760405162461bcd60e51b815260206004820152601060248201526f24a72b20a624a22fa22aa920aa24a7a760811b6044820152606401610282565b60016000600385900b1215612ea457506000195b6000612eb282820b866147ae565b60030b905060005b8461ffff168161ffff161015612ef3576003612ed58361356a565b612edf9190613ef4565b915080612eeb816147ce565b915050612eba565b50611792600083900b826147e5565b600080612f0d61179b565b905061022460048201846120df565b600080612f3f612f2b846135d9565b8554612f3a9190600f0b614815565b613647565b8454909150600160801b9004600f90810b9082900b12612f7257604051632d0483c560e21b815260040160405180910390fd5b600f0b60009081526001939093016020525050604090205490565b6000617d008260030b1315612fa45750607d919050565b614e208260030b1315612fb95750606e919050565b60008260030b12611c4057506064919050565b600080612ffe6040518060400160405280856001600160601b03168152602001866001600160a01b03168152506117e8565b905061300a84846136ab565b600061301461179b565b6000928352600c0160205250604090209392505050565b600061303683611bec565b905060006130448484612fcc565b60018082015491925060009161305a9190613fd0565b905081600101818154811061307157613071613d1e565b60009182526020822060048204015460038681018054919093166008026101000a9091046001600160401b0390811693916130ae9185911661451c565b92506101000a8154816001600160401b0302191690836001600160401b03160217905550816001018054806130e5576130e5614835565b60008281526020902060046000199092019182040180546001600160401b03600860038516026101000a021916905590558015801561313c57506001600283015460ff16600181111561313a5761313a6139cc565b145b1561314b5761314b858561318d565b6001856001600160a01b0316336001600160a01b03166000805160206148bf8339815191528660405161317e9190613e2b565b60405180910390a45050505050565b60006131998383612fcc565b90506001600282015460ff1660018111156131b6576131b66139cc565b146131f55760405162461bcd60e51b815260206004820152600f60248201526e4e4f44455f4e4f545f41435449564560881b6044820152606401610282565b60028101805460ff191690556102083383613701565b61321582826120df565b61327f5760405162461bcd60e51b815260206004820152603560248201527f556e6f7264657265644b65795365742831303229202d204b657920646f6573206044820152743737ba1032bc34b9ba1034b7103a34329039b2ba1760591b6064820152608401610282565b6001828101805460009261329291613fd0565b815481106132a2576132a2613d1e565b60009182526020808320909101548483529085905260408083205482845292208290556001850180549193508391839081106132e0576132e0613d1e565b60009182526020808320909101929092558481529085905260408120556001840180548061331057613310614835565b6001900381819060005260206000200160009055905550505050565b600081900361338e5760405162461bcd60e51b815260206004820152602860248201527f556e6f7264657265644b65795365742831303029202d204b65792063616e6e6f604482015267074206265203078360c41b6064820152608401610282565b61339882826120df565b156134035760405162461bcd60e51b815260206004820152603560248201527f556e6f7264657265644b65795365742831303129202d204b657920616c726561604482015274323c9032bc34b9ba399034b7103a34329039b2ba1760591b6064820152608401610282565b60018083018054808301825560008281526020902001839055546134279190613fd0565b60009182526020929092526040902055565b600080825160410361346f5760208301516040840151606085015160001a61346387828585613803565b94509450505050613477565b506000905060025b9250929050565b6000806000856001600160a01b0316631626ba7e60e01b86866040516024016134a892919061484b565b60408051601f198184030181529181526020820180516001600160e01b03166001600160e01b03199094169390931790925290516134e69190613db1565b600060405180830381855afa9150503d8060008114613521576040519150601f19603f3d011682016040523d82523d6000602084013e613526565b606091505b509150915081801561353a57506020815110155b801561204d57508051630b135d3f60e11b9061355f9083016020908101908401614885565b149695505050505050565b600060038211156135cb5750806000613584600283613ef4565b61358f906001613d61565b90505b818110156135c5579050806002816135aa8186613ef4565b6135b49190613d61565b6135be9190613ef4565b9050613592565b50919050565b8115611c4857506001919050565b60006001600160ff1b038211156136435760405162461bcd60e51b815260206004820152602860248201527f53616665436173743a2076616c756520646f65736e27742066697420696e2061604482015267371034b73a191a9b60c11b6064820152608401610282565b5090565b80600f81900b8114611c485760405162461bcd60e51b815260206004820152602760248201527f53616665436173743a2076616c756520646f65736e27742066697420696e20316044820152663238206269747360c81b6064820152608401610282565b6136b582826138bd565b15156001146101f95760405162461bcd60e51b81526020600482015260186024820152771393d11157d2539193d7d113d154d7d393d517d1561254d560421b6044820152606401610282565b60006137326040518060400160405280846001600160601b03168152602001856001600160a01b03168152506117e8565b905061373e83836136ab565b600061374861179b565b600083815260108201602052604090205490915060ff161561379d5760405162461bcd60e51b815260206004820152600e60248201526d1053149150511657d4555155515160921b6044820152606401610282565b60008281526010820160209081526040808320805460ff19166001908117909155600f850180549182018155845291832090910184905551839133917f9d3631b4a0253c94f155bb46117d75b8d07b4b7b20c5b760742805df5ee5d0b49190a350505050565b6000806fa2a8918ca85bafe22016d0b997e4df60600160ff1b0383111561383057506000905060036138b4565b6040805160008082526020820180845289905260ff881692820192909252606081018690526080810185905260019060a0016020604051602081039080840390855afa158015613884573d6000803e3d6000fd5b5050604051601f1901519150506001600160a01b0381166138ad576000600192509250506138b4565b9150600090505b94509492505050565b6000806138c861179b565b905060006138fb6040518060400160405280866001600160601b03168152602001876001600160a01b03168152506117e8565b9050611792600a8301826120df565b6040805161016081018252600080825260208201819052918101829052606081018290526080810182905260a0810182905260c0810182905260e08101829052610100810182905261012081018290529061014082015290565b5080546000825560030160049004906000526020600020908101906123b191905b808211156136435760008155600101613985565b6000602082840312156139ab57600080fd5b5035919050565b6001600160401b03169052565b6001600160601b03169052565b634e487b7160e01b600052602160045260246000fd5b600281106123b1576123b16139cc565b6139fb816139e2565b9052565b6000610160820190508251825260208301516020830152604083015160408301526060830151613a3260608401826139b2565b506080830151613a47608084018260030b9052565b5060a0830151613a5a60a08401826139bf565b5060c083015160c083015260e083015160e083015261010080840151818401525061012080840151613a8e828501826139bf565b505061014080840151613aa3828501826139f2565b505092915050565b60008060408385031215613abe57600080fd5b8235915060208301356001600160601b0381168114613adc57600080fd5b809150509250929050565b634e487b7160e01b600052604160045260246000fd5b803560048110611c4857600080fd5b600080600060608486031215613b2157600080fd5b83359250602080850135925060408501356001600160401b0380821115613b4757600080fd5b818701915087601f830112613b5b57600080fd5b813581811115613b6d57613b6d613ae7565b8060051b604051601f19603f83011681018181108582111715613b9257613b92613ae7565b60405291825284820192508381018501918a831115613bb057600080fd5b938501935b82851015613bd557613bc685613afd565b84529385019392850192613bb5565b8096505050505050509250925092565b60008083601f840112613bf757600080fd5b5081356001600160401b03811115613c0e57600080fd5b60208301915083602082850101111561347757600080fd5b60008060208385031215613c3957600080fd5b82356001600160401b03811115613c4f57600080fd5b613c5b85828601613be5565b90969095509350505050565b600060208284031215613c7957600080fd5b81356001600160a01b038116811461022457600080fd5b60008060008060608587031215613ca657600080fd5b8435935060208501356001600160401b03811115613cc357600080fd5b613ccf87828801613be5565b9598909750949560400135949350505050565b60008060408385031215613cf557600080fd5b50508035926020909101359150565b6020810160078310613d1857613d186139cc565b91905290565b634e487b7160e01b600052603260045260246000fd5b634e487b7160e01b600052601160045260246000fd5b80820281158282048414176101e9576101e9613d34565b808201808211156101e9576101e9613d34565b600060018201613d8657613d86613d34565b5060010190565b60005b83811015613da8578181015183820152602001613d90565b50506000910152565b60008251613dc3818460208701613d8d565b9190910192915050565b6020808252600f908201526e50454e44494e475f4449535055544560881b604082015260600190565b6020808252818101527f434f4d5045544954494f4e5f545950455f4e4f545f494d504c454d454e544544604082015260600190565b8154815260018201546020820152600282015460408201526003820154610160820190613e64606084016001600160401b0383166139b2565b604081901c60030b60808401526001600160601b03613e8c60a08501606084901c83166139bf565b600485015460c0850152600585015460e0850152600685015461010085015260078501549150613ec261012085018284166139bf565b50613ed7610140840160ff8360601c166139f2565b5092915050565b634e487b7160e01b600052601260045260246000fd5b600082613f0357613f03613ede565b500490565b600082613f1757613f17613ede565b500690565b61ffff818116838216019080821115613ed757613ed7613d34565b6020808252600e908201526d1253959053125117d4915591505360921b604082015260600190565b634e487b7160e01b600052600160045260246000fd5b600382810b9082900b03637fffffff198112637fffffff821317156101e9576101e9613d34565b600381810b9083900b01637fffffff8113637fffffff19821217156101e9576101e9613d34565b60208101613d18836139e2565b818103818111156101e9576101e9613d34565b600181811c90821680613ff757607f821691505b6020821081036135c557634e487b7160e01b600052602260045260246000fd5b601f82111561020857600081815260208120601f850160051c8101602086101561403e5750805b601f850160051c820191505b8181101561405d5782815560010161404a565b505050505050565b600019600383901b1c191660019190911b1790565b6001600160401b0383111561409157614091613ae7565b6140a58361409f8354613fe3565b83614017565b6000601f8411600181146140d357600085156140c15750838201355b6140cb8682614065565b84555061412d565b600083815260209020601f19861690835b8281101561410457868501358255602094850194600190920191016140e4565b50868210156141215760001960f88860031b161c19848701351681555b505060018560011b0183555b5050505050565b60ff81811683821601908111156101e9576101e9613d34565b805160208083015191908110156135c55760001960209190910360031b1b16919050565b600381106139fb576139fb6139cc565b600581106139fb576139fb6139cc565b6000815480845260208085019450836000528060002060005b838110156141cf5781546001600160a01b0316875295820195600191820191016141aa565b509495945050505050565b600081546141e781613fe3565b808552602060018381168015614204576001811461421e5761424c565b60ff1985168884015283151560051b88018301955061424c565b866000528260002060005b858110156142445781548a8201860152908301908401614229565b890184019650505b505050505092915050565b600081548084526020808501808196506005915083821b8101866000528360002060005b86811015614306578383038a5260e0808452614299818501846141da565b600184015460ff8116868a01529091506001600160a01b03600882901c1660408601525060028301546060850152600383015460ff166142dc6080860182614171565b50600483015460a08501528583015460c0909401939093529885019860069091019060010161427b565b509098975050505050505050565b6000815480845260208085019450836000528060002060005b838110156141cf5781548752958201956001918201910161432d565b602081528154602082015260018201546040820152600060028301546143766060840160ff831615159052565b61439060808401600883901c6001600160401b03166139b2565b604881901c60010b60a084015260ff605882901c811660c0850152606082901c1660e0840152606881901c61ffff908116610100850152607882901c8116610120850152506143e9610140840160ff8360881c16614171565b6143fd610160840160ff8360901c16614181565b50600383015461018083015260048301546101a083015260058301546101c083015260068301546101e0830152600783015461020083015261034080610220840152614450610360840160088601614191565b601f19808583030161024086015261446b8260098801614257565b9150808583030161026086015261448582600a8801614314565b9150600b8601546102808601526144a0600c87015460ff1690565b60ff9081166102a0870152600d8701546102c0870152600e8701541615156102e086015284820381016103008601526144dc82600f88016141da565b91508085830301610320860152506144f78160108701614314565b9050614507601186015460ff1690565b61451383860182614171565b50949350505050565b6001600160401b03818116838216019080821115613ed757613ed7613d34565b81516001600160401b0381111561455557614555613ae7565b614569816145638454613fe3565b84614017565b602080601f83116001811461459857600084156145865750858301515b6145908582614065565b86555061405d565b600085815260208120601f198616915b828110156145c7578886015182559484019460019091019084016145a8565b50858210156145e55787850151600019600388901b60f8161c191681555b5050505050600190811b01905550565b6001600160601b03828116828216039080821115613ed757613ed7613d34565b6000602080835260a08301845460018060a01b0381168386015260408160a01c81870152600191508187016080606081818a015285835461465a818990815260200190565b600095865260208620985091505b806003860110156146ce5787546001600160401b03614689848284166139b2565b6146998b850182848b1c166139b2565b6146a98885018284891c166139b2565b506146b98484018260c01c6139b2565b50968601966004949094019390830190614668565b965496808510156146f5576146ec826001600160401b038a166139b2565b93860193908801905b8085101561471b576147128289881c6001600160401b03166139b2565b93860193908801905b80851015614741576147388289861c6001600160401b03166139b2565b93860193908801905b8085101561475b57614756828960c01c6139b2565b908801905b5060028b015460ff169750614772838b01896139f2565b9a9950505050505050505050565b60006001600160601b038281166002600160601b031981016147a4576147a4613d34565b6001019392505050565b60008260030b8260030b028060030b9150808214613ed757613ed7613d34565b600061ffff8083168181036147a4576147a4613d34565b80820260008212600160ff1b8414161561480157614801613d34565b81810583148215176101e9576101e9613d34565b8082018281126000831280158216821582161715613aa357613aa3613d34565b634e487b7160e01b600052603160045260246000fd5b8281526040602082015260008251806040840152614870816060850160208701613d8d565b601f01601f1916919091016060019392505050565b60006020828403121561489757600080fd5b505191905056fe4b6295cf8b629f8fc90f01bc8e25f17379203f6e0b15728e58ad0cee94d7472d0c02ae36d31cbb3b796437a39db136a56a59b930c54cede59003384ef80f6505a2646970667358221220601d490d55bbe8dee306d582347c78fa38bf001bbd9975d8ee7dfcc863ea407964736f6c63430008110033",
  "linkReferences": {},
  "deployedLinkReferences": {}
}