{
  "_format": "hh-sol-artifact-1",
  "contractName": "OurkadeAdmin",
  "sourceName": "contracts/ourkade/ourkadeLogicContract/ourkadeAdmin.sol",
  "abi": [
    {
      "anonymous": false,
      "inputs": [
        {
          "indexed": false,
          "internalType": "uint8",
          "name": "version",
          "type": "uint8"
        }
      ],
      "name": "Initialized",
      "type": "event"
    },
    {
      "anonymous": false,
      "inputs": [
        {
          "indexed": true,
          "internalType": "address[]",
          "name": "assigned",
          "type": "address[]"
        },
        {
          "indexed": false,
          "internalType": "enum AssignedAction",
          "name": "action",
          "type": "uint8"
        },
        {
          "indexed": true,
          "internalType": "bytes",
          "name": "key",
          "type": "bytes"
        }
      ],
      "name": "LogActionAssigned",
      "type": "event"
    },
    {
      "anonymous": false,
      "inputs": [
        {
          "indexed": true,
          "internalType": "address",
          "name": "assigned",
          "type": "address"
        },
        {
          "indexed": false,
          "internalType": "enum AssignedAction",
          "name": "action",
          "type": "uint8"
        },
        {
          "indexed": true,
          "internalType": "bytes",
          "name": "key",
          "type": "bytes"
        }
      ],
      "name": "LogActionCompleted",
      "type": "event"
    },
    {
      "anonymous": false,
      "inputs": [
        {
          "indexed": true,
          "internalType": "address",
          "name": "sender",
          "type": "address"
        },
        {
          "indexed": true,
          "internalType": "bytes32",
          "name": "key",
          "type": "bytes32"
        },
        {
          "indexed": true,
          "internalType": "enum ChangeType",
          "name": "change",
          "type": "uint8"
        },
        {
          "components": [
            {
              "internalType": "bytes32",
              "name": "CompetitionId",
              "type": "bytes32"
            },
            {
              "internalType": "bytes32",
              "name": "GameDefinition",
              "type": "bytes32"
            },
            {
              "internalType": "bool",
              "name": "EligibleByTicket",
              "type": "bool"
            },
            {
              "internalType": "uint64",
              "name": "EligibleLoyalty",
              "type": "uint64"
            },
            {
              "internalType": "int16",
              "name": "EligibleReputation",
              "type": "int16"
            },
            {
              "internalType": "uint8",
              "name": "EligibleRankMinimum",
              "type": "uint8"
            },
            {
              "internalType": "uint8",
              "name": "EligibleRankMaximum",
              "type": "uint8"
            },
            {
              "internalType": "uint16",
              "name": "EligibleEloMinimum",
              "type": "uint16"
            },
            {
              "internalType": "uint16",
              "name": "EligibleEloMaximum",
              "type": "uint16"
            },
            {
              "internalType": "enum CurrencyType",
              "name": "CurrencyType",
              "type": "uint8"
            },
            {
              "internalType": "enum PrizeType",
              "name": "PrizeType",
              "type": "uint8"
            },
            {
              "internalType": "uint256",
              "name": "PrizePool",
              "type": "uint256"
            },
            {
              "internalType": "uint256",
              "name": "NodeReward",
              "type": "uint256"
            },
            {
              "internalType": "uint256",
              "name": "EntryFee",
              "type": "uint256"
            },
            {
              "internalType": "uint256",
              "name": "MinimumPlayers",
              "type": "uint256"
            },
            {
              "internalType": "uint256",
              "name": "MaximumPlayers",
              "type": "uint256"
            },
            {
              "internalType": "address[]",
              "name": "Players",
              "type": "address[]"
            },
            {
              "components": [
                {
                  "internalType": "bytes",
                  "name": "DataPin",
                  "type": "bytes"
                },
                {
                  "internalType": "uint8",
                  "name": "Round",
                  "type": "uint8"
                },
                {
                  "internalType": "address",
                  "name": "Player",
                  "type": "address"
                },
                {
                  "internalType": "uint256",
                  "name": "Score",
                  "type": "uint256"
                },
                {
                  "internalType": "enum MatchStatus",
                  "name": "Status",
                  "type": "uint8"
                },
                {
                  "internalType": "uint256",
                  "name": "StartTime",
                  "type": "uint256"
                },
                {
                  "internalType": "uint256",
                  "name": "EndTime",
                  "type": "uint256"
                }
              ],
              "internalType": "struct Match[]",
              "name": "Matches",
              "type": "tuple[]"
            },
            {
              "internalType": "uint256[]",
              "name": "MatchScoreData",
              "type": "uint256[]"
            },
            {
              "internalType": "uint256",
              "name": "EndTime",
              "type": "uint256"
            },
            {
              "internalType": "uint8",
              "name": "MatchesPerRound",
              "type": "uint8"
            },
            {
              "internalType": "uint256",
              "name": "MatchDuration",
              "type": "uint256"
            },
            {
              "internalType": "bool",
              "name": "HasDisputes",
              "type": "bool"
            },
            {
              "internalType": "bytes",
              "name": "DataPin",
              "type": "bytes"
            },
            {
              "internalType": "bytes32[]",
              "name": "Judges",
              "type": "bytes32[]"
            },
            {
              "internalType": "enum CompetitionStatus",
              "name": "Status",
              "type": "uint8"
            }
          ],
          "indexed": false,
          "internalType": "struct Competition",
          "name": "competition",
          "type": "tuple"
        }
      ],
      "name": "LogCompetition",
      "type": "event"
    },
    {
      "anonymous": false,
      "inputs": [
        {
          "indexed": true,
          "internalType": "address",
          "name": "sender",
          "type": "address"
        },
        {
          "indexed": true,
          "internalType": "bytes32",
          "name": "key",
          "type": "bytes32"
        },
        {
          "indexed": true,
          "internalType": "enum ChangeType",
          "name": "change",
          "type": "uint8"
        },
        {
          "components": [
            {
              "internalType": "bytes32",
              "name": "GameDefinitionId",
              "type": "bytes32"
            },
            {
              "internalType": "string",
              "name": "Name",
              "type": "string"
            },
            {
              "internalType": "bool",
              "name": "IsMultiplayer",
              "type": "bool"
            },
            {
              "internalType": "enum GameDefinitionStatus",
              "name": "Status",
              "type": "uint8"
            }
          ],
          "indexed": false,
          "internalType": "struct GameDefinition",
          "name": "game",
          "type": "tuple"
        }
      ],
      "name": "LogGame",
      "type": "event"
    },
    {
      "anonymous": false,
      "inputs": [
        {
          "indexed": true,
          "internalType": "address",
          "name": "sender",
          "type": "address"
        },
        {
          "indexed": true,
          "internalType": "bytes32",
          "name": "key",
          "type": "bytes32"
        },
        {
          "indexed": true,
          "internalType": "enum ChangeType",
          "name": "change",
          "type": "uint8"
        },
        {
          "components": [
            {
              "internalType": "address",
              "name": "PlayerProfileId",
              "type": "address"
            },
            {
              "internalType": "uint96",
              "name": "NodeId",
              "type": "uint96"
            },
            {
              "internalType": "uint64[]",
              "name": "LoyaltyLocked",
              "type": "uint64[]"
            },
            {
              "internalType": "enum NodeInfoStatus",
              "name": "Status",
              "type": "uint8"
            }
          ],
          "indexed": false,
          "internalType": "struct NodeInfo",
          "name": "info",
          "type": "tuple"
        }
      ],
      "name": "LogNodeInfo",
      "type": "event"
    },
    {
      "anonymous": false,
      "inputs": [
        {
          "indexed": true,
          "internalType": "address",
          "name": "sender",
          "type": "address"
        },
        {
          "indexed": true,
          "internalType": "bytes32",
          "name": "key",
          "type": "bytes32"
        }
      ],
      "name": "LogNodeQueueJoin",
      "type": "event"
    },
    {
      "anonymous": false,
      "inputs": [
        {
          "indexed": true,
          "internalType": "address",
          "name": "sender",
          "type": "address"
        },
        {
          "indexed": true,
          "internalType": "bytes32",
          "name": "key",
          "type": "bytes32"
        }
      ],
      "name": "LogNodeQueueLeave",
      "type": "event"
    },
    {
      "anonymous": false,
      "inputs": [
        {
          "indexed": true,
          "internalType": "address",
          "name": "sender",
          "type": "address"
        }
      ],
      "name": "LogNodeQueueRebuild",
      "type": "event"
    },
    {
      "anonymous": false,
      "inputs": [
        {
          "indexed": true,
          "internalType": "address",
          "name": "sender",
          "type": "address"
        },
        {
          "indexed": true,
          "internalType": "address",
          "name": "key",
          "type": "address"
        },
        {
          "indexed": true,
          "internalType": "enum ChangeType",
          "name": "change",
          "type": "uint8"
        },
        {
          "components": [
            {
              "internalType": "bytes32",
              "name": "PlayerProfileId",
              "type": "bytes32"
            },
            {
              "internalType": "uint256",
              "name": "Tickets",
              "type": "uint256"
            },
            {
              "internalType": "uint256",
              "name": "Rewards",
              "type": "uint256"
            },
            {
              "internalType": "uint64",
              "name": "Loyalty",
              "type": "uint64"
            },
            {
              "internalType": "int32",
              "name": "Reputation",
              "type": "int32"
            },
            {
              "internalType": "uint96",
              "name": "CompetitionNonce",
              "type": "uint96"
            },
            {
              "internalType": "uint256",
              "name": "LastGameTimestamp",
              "type": "uint256"
            },
            {
              "internalType": "uint256",
              "name": "GuiltyCount",
              "type": "uint256"
            },
            {
              "internalType": "uint256",
              "name": "LastGuiltyTimestamp",
              "type": "uint256"
            },
            {
              "internalType": "uint96",
              "name": "NodeCount",
              "type": "uint96"
            },
            {
              "internalType": "enum PlayerProfileStatus",
              "name": "Status",
              "type": "uint8"
            }
          ],
          "indexed": false,
          "internalType": "struct PlayerProfile",
          "name": "profile",
          "type": "tuple"
        }
      ],
      "name": "LogPlayerProfile",
      "type": "event"
    },
    {
      "anonymous": false,
      "inputs": [
        {
          "indexed": true,
          "internalType": "bytes32",
          "name": "role",
          "type": "bytes32"
        },
        {
          "indexed": true,
          "internalType": "address",
          "name": "account",
          "type": "address"
        },
        {
          "indexed": true,
          "internalType": "address",
          "name": "sender",
          "type": "address"
        }
      ],
      "name": "RoleGranted",
      "type": "event"
    },
    {
      "inputs": [
        {
          "internalType": "address",
          "name": "_address",
          "type": "address"
        }
      ],
      "name": "AddOurkadeAdmin",
      "outputs": [
        {
          "internalType": "bool",
          "name": "",
          "type": "bool"
        }
      ],
      "stateMutability": "nonpayable",
      "type": "function"
    },
    {
      "inputs": [
        {
          "internalType": "address",
          "name": "_address",
          "type": "address"
        }
      ],
      "name": "AddOurkadeOperator",
      "outputs": [
        {
          "internalType": "bool",
          "name": "",
          "type": "bool"
        }
      ],
      "stateMutability": "nonpayable",
      "type": "function"
    },
    {
      "inputs": [
        {
          "internalType": "address",
          "name": "_target",
          "type": "address"
        }
      ],
      "name": "AdminAbsolveProfile",
      "outputs": [],
      "stateMutability": "nonpayable",
      "type": "function"
    },
    {
      "inputs": [
        {
          "internalType": "address",
          "name": "_target",
          "type": "address"
        }
      ],
      "name": "AdminCreateProfile",
      "outputs": [],
      "stateMutability": "nonpayable",
      "type": "function"
    },
    {
      "inputs": [
        {
          "internalType": "address",
          "name": "_target",
          "type": "address"
        }
      ],
      "name": "AdminExcuseProfile",
      "outputs": [],
      "stateMutability": "nonpayable",
      "type": "function"
    },
    {
      "inputs": [
        {
          "internalType": "bytes32",
          "name": "_id",
          "type": "bytes32"
        },
        {
          "internalType": "string",
          "name": "_name",
          "type": "string"
        },
        {
          "internalType": "bool",
          "name": "_isMultiplayer",
          "type": "bool"
        }
      ],
      "name": "CreateGameDefinition",
      "outputs": [
        {
          "internalType": "bool",
          "name": "",
          "type": "bool"
        }
      ],
      "stateMutability": "nonpayable",
      "type": "function"
    },
    {
      "inputs": [
        {
          "internalType": "address",
          "name": "_target",
          "type": "address"
        },
        {
          "internalType": "uint256",
          "name": "_addTickets",
          "type": "uint256"
        }
      ],
      "name": "DepositTickets",
      "outputs": [],
      "stateMutability": "nonpayable",
      "type": "function"
    },
    {
      "inputs": [
        {
          "internalType": "bytes32",
          "name": "_id",
          "type": "bytes32"
        }
      ],
      "name": "DisableGameDefinition",
      "outputs": [],
      "stateMutability": "nonpayable",
      "type": "function"
    },
    {
      "inputs": [
        {
          "internalType": "address",
          "name": "_address",
          "type": "address"
        }
      ],
      "name": "IsAccessAdmin",
      "outputs": [
        {
          "internalType": "bool",
          "name": "",
          "type": "bool"
        }
      ],
      "stateMutability": "view",
      "type": "function"
    },
    {
      "inputs": [
        {
          "internalType": "address",
          "name": "_address",
          "type": "address"
        }
      ],
      "name": "IsOurkadeAdmin",
      "outputs": [
        {
          "internalType": "bool",
          "name": "",
          "type": "bool"
        }
      ],
      "stateMutability": "view",
      "type": "function"
    },
    {
      "inputs": [
        {
          "internalType": "address",
          "name": "_address",
          "type": "address"
        }
      ],
      "name": "IsOurkadeOperator",
      "outputs": [
        {
          "internalType": "bool",
          "name": "",
          "type": "bool"
        }
      ],
      "stateMutability": "view",
      "type": "function"
    },
    {
      "inputs": [
        {
          "internalType": "bytes32",
          "name": "_competitionId",
          "type": "bytes32"
        },
        {
          "internalType": "uint256",
          "name": "_matchIndex",
          "type": "uint256"
        },
        {
          "internalType": "bytes32",
          "name": "_signature",
          "type": "bytes32"
        },
        {
          "internalType": "bytes[]",
          "name": "_reveals",
          "type": "bytes[]"
        }
      ],
      "name": "MatchDisputeSubmitVote",
      "outputs": [],
      "stateMutability": "nonpayable",
      "type": "function"
    },
    {
      "inputs": [
        {
          "internalType": "address",
          "name": "_player",
          "type": "address"
        },
        {
          "internalType": "uint96",
          "name": "_count",
          "type": "uint96"
        }
      ],
      "name": "NodeAssign",
      "outputs": [],
      "stateMutability": "nonpayable",
      "type": "function"
    },
    {
      "inputs": [],
      "name": "NodeQueueCompact",
      "outputs": [],
      "stateMutability": "nonpayable",
      "type": "function"
    },
    {
      "inputs": [],
      "name": "NodeQueueReset",
      "outputs": [],
      "stateMutability": "nonpayable",
      "type": "function"
    },
    {
      "inputs": [
        {
          "internalType": "uint256",
          "name": "_tier",
          "type": "uint256"
        },
        {
          "internalType": "uint64",
          "name": "_limit",
          "type": "uint64"
        },
        {
          "internalType": "uint256",
          "name": "_turns",
          "type": "uint256"
        }
      ],
      "name": "NodeQueueTierSet",
      "outputs": [],
      "stateMutability": "nonpayable",
      "type": "function"
    },
    {
      "inputs": [
        {
          "internalType": "address",
          "name": "_player",
          "type": "address"
        },
        {
          "internalType": "uint96",
          "name": "_count",
          "type": "uint96"
        }
      ],
      "name": "NodeRemove",
      "outputs": [],
      "stateMutability": "nonpayable",
      "type": "function"
    },
    {
      "inputs": [
        {
          "internalType": "uint96",
          "name": "_nodeNumber",
          "type": "uint96"
        }
      ],
      "name": "NodeStakeQueueTier",
      "outputs": [],
      "stateMutability": "nonpayable",
      "type": "function"
    },
    {
      "inputs": [
        {
          "internalType": "uint96",
          "name": "_nodeNumber",
          "type": "uint96"
        }
      ],
      "name": "NodeStatusOffline",
      "outputs": [],
      "stateMutability": "nonpayable",
      "type": "function"
    },
    {
      "inputs": [
        {
          "internalType": "uint96",
          "name": "_nodeNumber",
          "type": "uint96"
        }
      ],
      "name": "NodeStatusOnline",
      "outputs": [],
      "stateMutability": "nonpayable",
      "type": "function"
    },
    {
      "inputs": [
        {
          "internalType": "uint96",
          "name": "_nodeNumber",
          "type": "uint96"
        }
      ],
      "name": "NodeUnstakeQueueTier",
      "outputs": [],
      "stateMutability": "nonpayable",
      "type": "function"
    },
    {
      "inputs": [
        {
          "internalType": "address",
          "name": "_address",
          "type": "address"
        }
      ],
      "name": "RemoveOurkadeAdmin",
      "outputs": [
        {
          "internalType": "bool",
          "name": "",
          "type": "bool"
        }
      ],
      "stateMutability": "nonpayable",
      "type": "function"
    },
    {
      "inputs": [
        {
          "internalType": "address",
          "name": "_address",
          "type": "address"
        }
      ],
      "name": "RemoveOurkadeOperator",
      "outputs": [
        {
          "internalType": "bool",
          "name": "",
          "type": "bool"
        }
      ],
      "stateMutability": "nonpayable",
      "type": "function"
    },
    {
      "inputs": [
        {
          "internalType": "uint8",
          "name": "_value",
          "type": "uint8"
        }
      ],
      "name": "SetCompetitionSlash",
      "outputs": [],
      "stateMutability": "nonpayable",
      "type": "function"
    },
    {
      "inputs": [
        {
          "internalType": "uint256",
          "name": "_value",
          "type": "uint256"
        }
      ],
      "name": "SetDisputeDuration",
      "outputs": [],
      "stateMutability": "nonpayable",
      "type": "function"
    },
    {
      "inputs": [
        {
          "internalType": "uint256",
          "name": "_value",
          "type": "uint256"
        }
      ],
      "name": "SetDisputeVotesRequired",
      "outputs": [],
      "stateMutability": "nonpayable",
      "type": "function"
    },
    {
      "inputs": [
        {
          "internalType": "uint64[]",
          "name": "_value",
          "type": "uint64[]"
        }
      ],
      "name": "SetLoyaltyLookup",
      "outputs": [],
      "stateMutability": "nonpayable",
      "type": "function"
    },
    {
      "inputs": [
        {
          "internalType": "uint256",
          "name": "_value",
          "type": "uint256"
        }
      ],
      "name": "SetMatchTimeLimit",
      "outputs": [],
      "stateMutability": "nonpayable",
      "type": "function"
    },
    {
      "inputs": [
        {
          "internalType": "bytes32[]",
          "name": "_gameDefinition",
          "type": "bytes32[]"
        },
        {
          "internalType": "address[]",
          "name": "_player",
          "type": "address[]"
        },
        {
          "internalType": "uint8[]",
          "name": "_rank",
          "type": "uint8[]"
        }
      ],
      "name": "SetPlayerGameRanks",
      "outputs": [],
      "stateMutability": "nonpayable",
      "type": "function"
    },
    {
      "inputs": [
        {
          "internalType": "uint32",
          "name": "_value",
          "type": "uint32"
        }
      ],
      "name": "SetRepAdjustRightAccuse",
      "outputs": [],
      "stateMutability": "nonpayable",
      "type": "function"
    },
    {
      "inputs": [
        {
          "internalType": "uint32",
          "name": "_value",
          "type": "uint32"
        }
      ],
      "name": "SetRepAdjustWrongAccuse",
      "outputs": [],
      "stateMutability": "nonpayable",
      "type": "function"
    },
    {
      "inputs": [
        {
          "internalType": "bytes32",
          "name": "role",
          "type": "bytes32"
        }
      ],
      "name": "checkrole",
      "outputs": [],
      "stateMutability": "view",
      "type": "function"
    },
    {
      "inputs": [
        {
          "internalType": "address",
          "name": "contractadmin",
          "type": "address"
        }
      ],
      "name": "init",
      "outputs": [],
      "stateMutability": "nonpayable",
      "type": "function"
    }
  ],
  "bytecode": "0x608060405234801561001057600080fd5b50614a64806100206000396000f3fe608060405234801561001057600080fd5b506004361061018b5760003560e01c80630cb5d2a5146101905780631040e586146101b757806319ab453c146101cc5780632638e8f2146101df5780632da4e17d146101f25780633644623214610205578063463782ff146102185780634d11a8861461022b578063527ec1111461023e5780635b30d1d9146102515780635e48f0eb1461026457806361382fe914610277578063717d17b81461027f5780638253a802146102925780638aba1571146102a55780638d1e702f146102b8578063985472c6146102cb5780639a056105146102de578063a576acf4146102f1578063a9c8a74814610304578063a9ca696114610317578063b4f5e3421461032a578063cf48fbbe1461033d578063e25f98f814610350578063e2e4d22614610363578063e8ff989314610376578063eb010d4e14610389578063f08aa57714610391578063f71a86d6146103a4578063f8a17623146103b7578063f9255186146103ca578063f96125f5146103dd578063ff81317c146103f0575b600080fd5b6101a361019e366004613c93565b610403565b604051901515815260200160405180910390f35b6101ca6101c5366004613cae565b610421565b005b6101ca6101da366004613c93565b610446565b6101a36101ed366004613c93565b6105a5565b6101ca610200366004613cde565b6105b6565b6101ca610213366004613d11565b6105dd565b6101a3610226366004613c93565b6105fe565b6101a3610239366004613d34565b610609565b6101ca61024c366004613cae565b610639565b6101ca61025f366004613e12565b61065a565b6101ca610272366004613e72565b610687565b6101ca6106b0565b6101ca61028d366004613eb6565b6106d3565b6101ca6102a0366004613c93565b610702565b6101ca6102b3366004613f4f565b610723565b6101a36102c6366004613c93565b610744565b6101ca6102d9366004613c93565b61074f565b6101ca6102ec366004613f4f565b610770565b6101ca6102ff366004613cae565b610791565b6101ca610312366004613f4f565b61079a565b6101ca610325366004613cde565b6107bb565b6101ca610338366004613cae565b6107dd565b6101ca61034b366004613f6a565b6107fe565b6101ca61035e366004613fab565b610820565b6101a3610371366004613c93565b610841565b6101ca610384366004613c93565b610864565b6101ca610885565b6101a361039f366004613c93565b6108a5565b6101a36103b2366004613c93565b6108ba565b6101ca6103c5366004613fab565b6108dd565b6101ca6103d8366004613cae565b6108fe565b6101ca6103eb366004613f4f565b61091f565b6101ca6103fe366004613fd1565b610940565b60008061040f81610962565b61041883610978565b91505b50919050565b6000805160206149ef83398151915261043981610962565b610442826109a7565b5050565b600054610100900460ff16158080156104665750600054600160ff909116105b806104805750303b158015610480575060005460ff166001145b6104e85760405162461bcd60e51b815260206004820152602e60248201527f496e697469616c697a61626c653a20636f6e747261637420697320616c72656160448201526d191e481a5b9a5d1a585b1a5e995960921b60648201526084015b60405180910390fd5b6000805460ff19166001179055801561050b576000805461ff0019166101001790555b6105136109bb565b61051c826109c5565b506105366000805160206149ef83398151915260006109e8565b61055c6000805160206149cf8339815191526000805160206149ef8339815191526109e8565b8015610442576000805461ff0019169055604051600181527f7f26b83ff96e1f2b6a682f133852f6798a09c465da95921460cefb38474024989060200160405180910390a15050565b60006105b0826109ff565b92915050565b6000805160206149ef8339815191526105ce81610962565b6105d88383610a25565b505050565b6000805160206149ef8339815191526105f581610962565b61044282610a2f565b60006105b082610aa2565b60006000805160206149ef83398151915261062381610962565b61062f86868686610ac8565b9695505050505050565b6000805160206149ef83398151915261065181610962565b61044282610b76565b6000805160206149cf83398151915261067281610962565b61067f8686868686610b8a565b505050505050565b6000805160206149ef83398151915261069f81610962565b6106aa848484610ee5565b50505050565b6000805160206149ef8339815191526106c881610962565b6106d0610fbc565b50565b6000805160206149ef8339815191526106eb81610962565b6106f987878787878761106a565b50505050505050565b6000805160206149ef83398151915261071a81610962565b61044282611141565b6000805160206149cf83398151915261073b81610962565b6104428261114a565b60006105b082611154565b6000805160206149ef83398151915261076781610962565b6104428261116d565b6000805160206149cf83398151915261078881610962565b610442826111d5565b6106d081610962565b6000805160206149cf8339815191526107b281610962565b610442826111df565b6000805160206149ef8339815191526107d381610962565b6105d88383611285565b6000805160206149ef8339815191526107f581610962565b6104428261128f565b6000805160206149ef83398151915261081681610962565b6105d883836112a3565b6000805160206149ef83398151915261083881610962565b610442826112bd565b60006000805160206149ef83398151915261085b81610962565b610418836112f0565b6000805160206149ef83398151915261087c81610962565b61044282611316565b6000805160206149ef83398151915261089d81610962565b6106d061137c565b6000806108b181610962565b61041883611384565b60006000805160206149ef8339815191526108d481610962565b610418836113aa565b6000805160206149ef8339815191526108f581610962565b610442826108dd565b6000805160206149ef83398151915261091681610962565b610442826113d0565b6000805160206149cf83398151915261093781610962565b61044282611472565b6000805160206149ef83398151915261095881610962565b6105d8838361147c565b600061096c61152d565b90506104428183611551565b60008061098361152d565b905061099e816000805160206149ef8339815191528561155c565b50600192915050565b60006109b161152d565b602b019190915550565b6109c361157c565b565b6000806109d061152d565b90506109de81600085611632565b5060019392505050565b60006109f261152d565b90506105d88184846116ab565b600080610a0a61152d565b9050610418816000805160206149ef83398151915285611700565b6104428282611727565b6000610a3961152d565b905060648260ff161115610a8b5760405162461bcd60e51b81526020600482015260196024820152780929cac82989288be869e9aa08aa892a8929e9cbea69882a69603b1b60448201526064016104df565b602801805460ff191660ff92909216919091179055565b600080610aad61152d565b9050610418816000805160206149cf83398151915285611700565b6000828103610ae95760405162461bcd60e51b81526004016104df90613ffb565b610400831115610b0b5760405162461bcd60e51b81526004016104df90613ffb565b610b6b85604051806080016040528088815260200187878080601f0160208091040260200160405190810160405280939291908181526020018383808284376000920182905250938552505050861515602083015260409091015261193e565b506001949350505050565b6000610b8061152d565b6029019190915550565b6000610b9461152d565b9050600081601d01610ba688886119fe565b604051610bb39190614060565b908152602001604051809103902090508060000154600003610c095760405162461bcd60e51b815260206004820152600f60248201526e494e56414c49445f4449535055544560881b60448201526064016104df565b60006002820154600160a01b900460ff166006811115610c2b57610c2b614026565b14610c695760405162461bcd60e51b815260206004820152600e60248201526d111254d415551157d0d313d4d15160921b60448201526064016104df565b33600090815260058201602052604090205460ff1615610cbc5760405162461bcd60e51b815260206004820152600e60248201526d4455504c49434154455f564f544560901b60448201526064016104df565b6002810154336001600160a01b0390911603610cea5760405162461bcd60e51b81526004016104df9061407c565b6001810154336001600160a01b0390911603610d185760405162461bcd60e51b81526004016104df9061407c565b6000610d2333611a2c565b9050610d40338260030160089054906101000a900460030b611a3f565b6000610d4c8989611b19565b90506004816006811115610d6257610d62614026565b03610d8757604080516000815260208101909152610d818a8a83611c3d565b50610eda565b6001816006811115610d9b57610d9b614026565b1480610db857506002816006811115610db657610db6614026565b145b15610e8957826004016040518060800160405280610dd533612455565b8152602081018a9052604001610deb888a6140e8565b8152602001600090528154600181810184556000938452602093849020835160049093020191825583830151908201556040820151805192939192610e369260028501920190613aba565b5060608201518160030160006101000a81548160ff02191690836003811115610e6157610e61614026565b0217905550503360009081526005850160205260409020805460ff1916600117905550610eda565b6003816006811115610e9d57610e9d614026565b03610eda5760405162461bcd60e51b815260206004820152600d60248201526c1593d5125391d7d0d313d4d151609a1b60448201526064016104df565b505050505050505050565b6000610eef61152d565b90508060150154600003610f37578315610f1b5760405162461bcd60e51b81526004016104df906141bc565b601581018054906000610f2d836141fd565b9190505550610f7e565b8060150154841115610f5b5760405162461bcd60e51b81526004016104df906141bc565b80601501548403610f7e57601581018054906000610f78836141fd565b91905055505b6000938452601681016020908152604080862080546001600160401b0319166001600160401b03969096169590951790945560179091019052912055565b6000610fc661152d565b9050600d81016000610fdb600e840182613b10565b505060005b600f82015481101561103c5781601001600083600f01838154811061100757611007614216565b600091825260208083209091015483528201929092526040019020805460ff1916905580611034816141fd565b915050610fe0565b5061104b600f82016000613b10565b6000601182018190556013820181905560016012830155601490910155565b848314801561107857508481145b6110b55760405162461bcd60e51b815260206004820152600e60248201526d494e56414c49445f55504441544560901b60448201526064016104df565b60005b838110156106f95761112f8787838181106110d5576110d5614216565b905060200201358686848181106110ee576110ee614216565b90506020020160208101906111039190613c93565b85858581811061111557611115614216565b905060200201602081019061112a9190613d11565b612461565b80611139816141fd565b9150506110b8565b6106d081612504565b6106d03382612515565b60008061115f61152d565b905061041881600085611700565b600061117882611a2c565b9050600181600501600082825461118f919061422c565b90915550600190505b826001600160a01b0316336001600160a01b0316600080516020614a0f833981519152846040516111c99190614277565b60405180910390a45050565b6106d03382612593565b60006111eb33836126d8565b90506001600282015460ff16600181111561120857611208614026565b0361124b5760405162461bcd60e51b81526020600482015260136024820152724e4f44455f414c52454144595f41435449564560681b60448201526064016104df565b60028101805460ff1916600117905560005b60018201548110156105d8576112733384612737565b8061127d816141fd565b91505061125d565b61044282826127fb565b600061129961152d565b602e019190915550565b60006112ad61152d565b90506106aa602f82018484613b2e565b60006112c761152d565b602d01805463ffffffff909316600160401b0263ffffffff60401b199093169290921790915550565b6000806112fb61152d565b905061099e816000805160206149cf8339815191528561155c565b600061132d61132483612455565b60016000612a64565b6000600582018190556006820181905560038201805463ffffffff60401b191690559091506007820154600160601b900460ff16600181111561137257611372614026565b5060049050611198565b6109c3612b15565b60008061138f61152d565b905061099e816000805160206149ef83398151915285612bde565b6000806113b561152d565b905061099e816000805160206149cf83398151915285612bde565b60006113db82612bfe565b905060006002820154610100900460ff1660018111156113fd576113fd614026565b1461143c5760405162461bcd60e51b815260206004820152600f60248201526e47414d455f4e4f545f41435449564560881b60448201526064016104df565b60028101805461ff0019166101001790556040516003908390339060008051602061498f833981519152906111c9908690614350565b6106d03382612c27565b600081116114c55760405162461bcd60e51b81526020600482015260166024820152751253959053125117d51250d2d15517d1115413d4d25560521b60448201526064016104df565b60006114d083611a2c565b9050818160010160008282546114e69190614407565b90915550600190505b836001600160a01b0316336001600160a01b0316600080516020614a0f833981519152846040516115209190614277565b60405180910390a4505050565b7f3811155c0a13998f1918d4b7c42705baf10874a2b3c97697256081485ee6634790565b610442828233612d7a565b826115678484612dc7565b6115718282611551565b61067f858585611632565b600061158661152d565b6001601282015560026018820155600a6019808301829055601a830191909155620151806027830181905560288301805460ff191690921790915560326029830155612a30602a8301556202a300602b830155602c820155602d810180546001600160e81b031916650320000000c8601960641b0167fffff63c0000001960a21b0117905562093a80602e82015560300180546001600160501b03191667271000000000211417905550565b600061163f848484611700565b6116a0576000838152602085815260408083206001600160a01b0386168085529252808320805460ff1916600117905551339286917f2f8788117e7eff1d82e926ec794901d17c78024a50270940304540a733656f0d9190a45060016116a4565b5060005b9392505050565b60006116b78484612dc7565b600084815260208690526040808220600101859055519192508391839186917fbd79b86ffe0ab8e8776151514217cd7cacd52c909f66475c3af44e129f0b00ff9190a450505050565b6000918252602092835260408083206001600160a01b039290921683529252205460ff1690565b600061173283611a2c565b60078101549091506001600160601b0390811690831611156117855760405162461bcd60e51b815260206004820152600c60248201526b1393d11157d253959053125160a21b60448201526064016104df565b60005b826001600160601b0316816001600160601b031610156118e65760078201546000906117be9083906001600160601b031661441a565b905060006117f16040518060400160405280846001600160601b03168152602001886001600160a01b0316815250612ddd565b905060006117ff87846126d8565b905060005b600182015481101561182c5761181a8885612c27565b80611824816141fd565b915050611804565b506001600282015460ff16600181111561184857611848614026565b03611857576118578784612515565b600061186161152d565b9050611870600a820184612e37565b6000838152600c820160205260408120818155906118916001830182613beb565b506002908101805460ff1916905583336001600160a01b03166000805160206149af833981519152856040516118c7919061443a565b60405180910390a45050505080806118de906145a5565b915050611788565b506007810180548391906000906119079084906001600160601b031661441a565b92506101000a8154816001600160601b0302191690836001600160601b03160217905550600160048111156114ef576114ef614026565b600061194861152d565b90506119576007820184612f58565b60008381526009820160209081526040909120835181559083015183919060018201906119849082614619565b50604082015160028201805491151560ff1983168117825560608501519261ff001990911661ffff19909116176101008360018111156119c6576119c6614026565b0217905550600091506119d69050565b83336001600160a01b031660008051602061498f8339815191528560405161152091906146d8565b604080516020810184905290810182905260609081015b604051602081830303815290604052905092915050565b60006105b0611a3a83612455565b613065565b600080611a4a61152d565b9050617d008360030b1315611a625760039150611a8a565b614e208360030b1315611a785760029150611a8a565b610fa08360030b1315611a8a57600191505b6001600160a01b03841660009081526025820160205260409020548211611ae85760405162461bcd60e51b8152602060048201526012602482015271494e53554646494349454e545f564f54455360701b60448201526064016104df565b6001600160a01b03841660009081526025820160205260408120805491611b0e836141fd565b919050555050505050565b600080611b2461152d565b90506000611b3185613073565b9050600082601d01611b4387876119fe565b604051611b509190614060565b908152604051908190036020019020905060006002820154600160a01b900460ff166006811115611b8357611b83614026565b14611ba05760020154600160a01b900460ff1692506105b0915050565b82602c015483602b015483600b0154611bb99190614407565b611bc39190614407565b4210611bd557600493505050506105b0565b82602b015482600b0154611be99190614407565b4210611c16576029830154600482015410611c0a57600393505050506105b0565b600493505050506105b0565b6029830154600482015410611c3157600293505050506105b0565b600193505050506105b0565b6000611c4761152d565b9050836000611c5682866119fe565b9050600083601d0182604051611c6c9190614060565b908152602001604051809103902090506000611c888488611b19565b905060006002830154600160a01b900460ff166006811115611cac57611cac614026565b14611cec5760405162461bcd60e51b815260206004820152601060248201526f494e4143544956455f4449535055544560801b60448201526064016104df565b6001816006811115611d0057611d00614026565b03611d1d5760405162461bcd60e51b81526004016104df90614741565b6000611d2885613073565b90506004826006811115611d3e57611d3e614026565b03611d5d5760028301805460ff60a01b1916600160a21b1790556123f2565b6002826006811115611d7157611d71614026565b1480611d8e57506003826006811115611d8c57611d8c614026565b145b156123f2576000805b6003850154811015611df757336001600160a01b0316856003018281548110611dc257611dc2614216565b6000918252602090912001546001600160a01b031603611de55760019150611df7565b80611def816141fd565b915050611d97565b5080611e155760405162461bcd60e51b81526004016104df90614741565b80156123f0576004840154885160009081908314611e455760405162461bcd60e51b81526004016104df9061476a565b60005b8b51811015611f595760008c8281518110611e6557611e65614216565b602002602001015190506000896004018381548110611e8657611e86614216565b90600052602060002090600402019050818160030160006101000a81548160ff02191690836003811115611ebc57611ebc614026565b02179055506000826003811115611ed557611ed5614026565b03611ef25760405162461bcd60e51b81526004016104df9061476a565b6001826003811115611f0657611f06614026565b03611f1d57611f16600185614407565b9350611f44565b6002826003811115611f3157611f31614026565b03611f4457611f41600186614407565b94505b50508080611f51906141fd565b915050611e48565b506001870154600090611f7890611324906001600160a01b0316612455565b6002890154909150600090611f9990611324906001600160a01b0316612455565b90508b60290154851015611faf57611faf614792565b6000848411611fbf576002611fc2565b60015b90506001816003811115611fd857611fd8614026565b036121dd576000611fee8587866005015461309c565b90508060010b8460030160088282829054906101000a900460030b61201391906147a8565b92506101000a81548163ffffffff021916908360030b63ffffffff16021790555060018460050160008282546120499190614407565b909155505042600685015560016007850154600160601b900460ff16600181111561207657612076614026565b141580156120be5750602d8e0154600385810154600160c01b909204810b600160401b909204900b1315806120be5750602d8e01546005850154600160e01b90910460ff1611155b156120ce5783546120ce9061325c565b60008e601b016120e88f6120e3886000015490565b6132ca565b6040516120f59190614060565b9081526020016040518091039020905060005b815481101561216c5760028b600901828154811061212857612128614216565b60009182526020909120600360069092020101805460ff1916600183600281111561215557612155614026565b021790555080612164816141fd565b915050612108565b508e602d0160049054906101000a900463ffffffff168460030160088282829054906101000a900460030b6121a191906147cf565b825463ffffffff9182166101009390930a928302919092021990911617905550505060028a01805460ff60a01b1916600360a11b179055612244565b602d8d01546003808401805463ffffffff600160401b948590041693919260089261220e928692919004900b6147a8565b825463ffffffff9182166101009390930a92830291909202199091161790555060028a01805460ff60a01b1916600560a01b1790555b60005b60048b01548110156123e85760008b600401828154811061226a5761226a614216565b9060005260206000209060040201905060006122898260000154613065565b90506003808084015460ff16908111156122a5576122a5614026565b036122f3578f602d0160189054906101000a900460030b8160030160086101000a81548163ffffffff021916908360030b63ffffffff1602179055506122ee826000015461325c565b6123d3565b83600381111561230557612305614026565b60038084015460ff169081111561231e5761231e614026565b0361237d578f602d01600c9054906101000a900463ffffffff168160030160088282829054906101000a900460030b61235791906147a8565b92506101000a81548163ffffffff021916908360030b63ffffffff1602179055506123d3565b8f602d0160109054906101000a900463ffffffff168160030160088282829054906101000a900460030b6123b191906147a8565b92506101000a81548163ffffffff021916908360030b63ffffffff1602179055505b505080806123e0906141fd565b915050612247565b505050505050505b505b836040516124009190614060565b6040518091039020336001600160a01b03167f1bf5a73da50c80e7642cf6b059b35b3068274c06310a684b0c5fbb92f2684b59600160405161244291906147f6565b60405180910390a3505050505050505050565b6001600160a01b031690565b600061246b61152d565b9050612476846132f5565b600061248184611a2c565b90508282601f01600061249387612455565b8152602080820192909252604090810160009081208982529092529020805460ff191660ff929092169190911790556001846001600160a01b0316336001600160a01b0316600080516020614a0f833981519152846040516124f59190614277565b60405180910390a45050505050565b6106d061251082612455565b61333e565b600061252183836126d8565b90506001600282015460ff16600181111561253e5761253e614026565b1461257d5760405162461bcd60e51b815260206004820152600f60248201526e4e4f44455f4e4f545f41435449564560881b60448201526064016104df565b60028101805460ff191690556105d833836133bf565b600061259e83611a2c565b905060006125ac84846126d8565b600181015490915060006125bf826134c1565b5060038501549091506001600160401b038083169116101561261a5760405162461bcd60e51b8152602060048201526014602482015273494e53554646494349454e545f4c4f59414c545960601b60448201526064016104df565b60038401805482919060009061263a9084906001600160401b0316614809565b825461010092830a6001600160401b038181021990921692821602919091179092556001868101805480830182556000918252602090912060048204018054600390921660080290930a80850219909116938616029290921790559050866001600160a01b0316336001600160a01b0316600080516020614a0f833981519152876040516126c89190614277565b60405180910390a4505050505050565b60008061270a6040518060400160405280856001600160601b03168152602001866001600160a01b0316815250612ddd565b90506127168484613524565b600061272061152d565b6000928352600c0160205250604090209392505050565b60006127686040518060400160405280846001600160601b03168152602001856001600160a01b0316815250612ddd565b90506127748383613524565b600061277e61152d565b600083815260108201602052604090205490915060ff1615156001036127bb5760008281526010820160205260409020805460ff191690556127c8565b6127c8600d820183612f58565b604051829033907f43fb85d30169a0f3a55f617cdfcfe2479066d79a38f97833d115b036e072af2590600090a350505050565b600061280561152d565b90506000826001600160601b0316116128305760405162461bcd60e51b81526004016104df90614829565b600061283b84611a2c565b60038082015491925061285691600160401b9004900b61357a565b60078101546001600160601b039061287090821685614858565b6001600160601b0316106128965760405162461bcd60e51b81526004016104df90614829565b60015b836001600160601b0316816001600160601b0316116129c7576000612928604051806040016040528085600701600081819054906101000a90046001600160601b03166128e5906145a5565b91906101000a8154816001600160601b0302191690836001600160601b0316021790556001600160601b03168152602001886001600160a01b0316815250612ddd565b9050612937600a850182612f58565b6000818152600c8501602052604080822080546001600160a01b0319166001600160a01b038a16908117825560078701546001600160601b0316600160a01b0217815560028101805460ff191690559051909190839033906000805160206149af833981519152906129aa90869061443a565b60405180910390a4505080806129bf906145a5565b915050612899565b506030820154600382810154600160301b90920463ffffffff16810b600160401b909204900b1215612a2357603082015460038201805463ffffffff60401b1916600160301b90920463ffffffff16600160401b029190911790555b6001846001600160a01b0316336001600160a01b0316600080516020614a0f83398151915284604051612a569190614277565b60405180910390a450505050565b6000612a6f846135ea565b6000612a7961152d565b6000868152600382016020526040902090915084158015612ab9575060016007820154600160601b900460ff166001811115612ab757612ab7614026565b145b15612af95760405162461bcd60e51b815260206004820152601060248201526f141493d192531157d11254d05093115160821b60448201526064016104df565b831515600003612b0c57612b0c8161363d565b95945050505050565b6000612b1f61152d565b600f810154601a820154919250906000908211612b3c5781612b42565b82601a01545b905060015b8181116106aa576000600f8501612b5e838661422c565b81548110612b6e57612b6e614216565b6000918252602090912001549050612b89600d860182612e37565b60008181526010860160205260409020805460ff19169055600f8501805480612bb457612bb4614878565b60019003818190600052602060002001600090559055508080612bd6906141fd565b915050612b47565b82612be98484612dc7565b612bf38282611551565b61067f858585613798565b6000612c09826132f5565b6000612c1361152d565b600093845260090160205250506040902090565b6000612c3283611a2c565b90506000612c4084846126d8565b600180820154919250600091612c56919061422c565b9050816001018181548110612c6d57612c6d614216565b60009182526020822060048204015460038681018054919093166008026101000a9091046001600160401b039081169391612caa9185911661488e565b92506101000a8154816001600160401b0302191690836001600160401b0316021790555081600101805480612ce157612ce1614878565b60008281526020902060046000199092019182040180546001600160401b03600860038516026101000a0219169055905580158015612d3857506001600283015460ff166001811115612d3657612d36614026565b145b15612d4757612d478585612515565b6001856001600160a01b0316336001600160a01b0316600080516020614a0f833981519152866040516124f59190614277565b612d85838383611700565b6105d85760405162461bcd60e51b81526020600482015260136024820152726e6f7420617574686f726973656420726f6c6560681b60448201526064016104df565b6000908152602091909152604090206001015490565b6000816000015160a01b826020015160601b604051602001612e1f9291906001600160a01b03199290921682526001600160601b031916600c82015260200190565b6040516020818303038152906040526105b0906148ae565b612e418282613804565b612eab5760405162461bcd60e51b815260206004820152603560248201527f556e6f7264657265644b65795365742831303229202d204b657920646f6573206044820152743737ba1032bc34b9ba1034b7103a34329039b2ba1760591b60648201526084016104df565b60018281018054600092612ebe9161422c565b81548110612ece57612ece614216565b6000918252602080832090910154848352908590526040808320548284529220829055600185018054919350839183908110612f0c57612f0c614216565b600091825260208083209091019290925584815290859052604081205560018401805480612f3c57612f3c614878565b6001900381819060005260206000200160009055905550505050565b6000819003612fba5760405162461bcd60e51b815260206004820152602860248201527f556e6f7264657265644b65795365742831303029202d204b65792063616e6e6f604482015267074206265203078360c41b60648201526084016104df565b612fc48282613804565b1561302f5760405162461bcd60e51b815260206004820152603560248201527f556e6f7264657265644b65795365742831303129202d204b657920616c726561604482015274323c9032bc34b9ba399034b7103a34329039b2ba1760591b60648201526084016104df565b6001808301805480830182556000828152602090200183905554613053919061422c565b60009182526020929092526040902055565b60006105b082600080612a64565b600061307e82613854565b600061308861152d565b600093845260060160205250506040902090565b6000806130a761152d565b905060006130b58686614407565b6130bf90866148e8565b6130ca9060646148fc565b905060008260290154871180156130e45750826029015486115b156131e257605a8260ff16106131325760408051606081018252610ed88152611d4c6020820152614e8491810191909152856003811061312657613126614216565b6020020151905061062f565b60328260ff161061316f576040805160608101825261051481526109c46020820152614e8491810191909152856003811061312657613126614216565b60ff8216156131aa576040805160608101825261019081526102bc6020820152614e8491810191909152856003811061312657613126614216565b60405162461bcd60e51b815260206004820152600d60248201526c2224a9a82aaa22afa2a92927a960991b60448201526064016104df565b605a8260ff161061321f576040805160608101825261138881526127106020820152614e8491810191909152856003811061312657613126614216565b60328260ff161061316f57604080516060810182526109c481526113886020820152614e8491810191909152856003811061312657613126614216565b600061326782613065565b90506132808260078301546001600160601b0316611727565b600781018054600160601b60ff60601b199091161790556003826001600160a01b0316336001600160a01b0316600080516020614a0f833981519152846040516111c99190614277565b6060828260601b604051602001611a159291909182526001600160601b031916602082015260340190565b6132fe816138ab565b15156001146106d05760405162461bcd60e51b815260206004820152600c60248201526b494e56414c49445f47414d4560a01b60448201526064016104df565b600061334861152d565b90506133576001820183612f58565b6000828152600382016020526040902082815560078101805460ff60601b191690556133816138c5565b6001600160a01b03841660008181526023850160205260408082209390935591513390600080516020614a0f83398151915290611520908690614277565b60006133f06040518060400160405280846001600160601b03168152602001856001600160a01b0316815250612ddd565b90506133fc8383613524565b600061340661152d565b600083815260108201602052604090205490915060ff161561345b5760405162461bcd60e51b815260206004820152600e60248201526d1053149150511657d4555155515160921b60448201526064016104df565b60008281526010820160209081526040808320805460ff19166001908117909155600f850180549182018155845291832090910184905551839133917f9d3631b4a0253c94f155bb46117d75b8d07b4b7b20c5b760742805df5ee5d0b49190a350505050565b60008060006134ce61152d565b9050806015015484106134f35760405162461bcd60e51b81526004016104df906141bc565b60009384526016810160209081526040808620546017909301909152909320546001600160401b0390931693915050565b61352e8282613915565b15156001146104425760405162461bcd60e51b81526020600482015260186024820152771393d11157d2539193d7d113d154d7d393d517d1561254d560421b60448201526064016104df565b600061358461152d565b90508060300160029054906101000a900463ffffffff1660030b8260030b12156104425760405162461bcd60e51b815260206004820152601760248201527624a729aaa32324a1a4a2a72a2fa922a82aaa20aa24a7a760491b60448201526064016104df565b6135f381613962565b15156001146106d05760405162461bcd60e51b8152602060048201526016602482015275141493d192531157d113d154d7d393d517d1561254d560521b60448201526064016104df565b805460006136496138c5565b9050600061365561152d565b6001600160a01b03841660009081526024820160205260409020549091508290036136805750505050565b6001600160a01b038316600090815260238201602052604081205460278301549091906136ad908561422c565b82101561375a5760278301546136c3838661422c565b6136cd91906148e8565b6030840154909150610100900460ff1661ffff821611156136ff5760038601805463ffffffff60401b1916905561375a565b60038087015461371991600160401b909104900b8261397c565b8660030160088282829054906101000a900460030b61373891906147cf565b92506101000a81548163ffffffff021916908360030b63ffffffff1602179055505b50506001600160a01b039092166000908152602583016020908152604080832083905560268501825280832083905560249094019052919091205550565b60006137a5848484611700565b156116a0576000838152602085815260408083206001600160a01b0386168085529252808320805460ff1916905551339286917ff6391f5c32d9c69d2a47ea670b442974b53935d1edc7fd64eb21e047a839171b9190a45060016116a4565b6001820154600090810361381a575060006105b0565b600082815260208490526040902054600184018054849290811061384057613840614216565b906000526020600020015414905092915050565b61385d81613a36565b15156001146106d05760405162461bcd60e51b815260206004820152601a60248201527910d3d354115512551253d397d113d154d7d393d517d1561254d560321b60448201526064016104df565b6000806138b661152d565b90506104186007820184613804565b6000806138d061152d565b905080602201548160270154426138e791906148e8565b111561390c5760278101546138fc9042614913565b613906904261422c565b60228201555b60220154919050565b60008061392061152d565b905060006139536040518060400160405280866001600160601b03168152602001876001600160a01b0316815250612ddd565b9050612b0c600a830182613804565b60008061396d61152d565b90506104186001820184613804565b6000808261ffff16116139c45760405162461bcd60e51b815260206004820152601060248201526f24a72b20a624a22fa22aa920aa24a7a760811b60448201526064016104df565b60016000600385900b12156139d857506000195b60006139e682820b86614927565b60030b905060005b8461ffff168161ffff161015613a27576003613a0983613a50565b613a1391906148e8565b915080613a1f81614947565b9150506139ee565b50612b0c600083900b8261495e565b600080613a4161152d565b90506104186004820184613804565b60006003821115613aab5750806000613a6a6002836148e8565b613a75906001614407565b90505b8181101561041b57905080600281613a9081866148e8565b613a9a9190614407565b613aa491906148e8565b9050613a78565b8115613ab5575060015b919050565b828054828255906000526020600020908101928215613b00579160200282015b82811115613b005782518290613af09082614619565b5091602001919060010190613ada565b50613b0c929150613c10565b5090565b50805460008255906000526020600020908101906106d09190613c2d565b82805482825590600052602060002090600301600490048101928215613bdf5791602002820160005b83821115613baa5783356001600160401b031683826101000a8154816001600160401b0302191690836001600160401b031602179055509260200192600801602081600701049283019260010302613b57565b8015613bdd5782816101000a8154906001600160401b030219169055600801602081600701049283019260010302613baa565b505b50613b0c929150613c2d565b5080546000825560030160049004906000526020600020908101906106d09190613c2d565b80821115613b0c576000613c248282613c42565b50600101613c10565b5b80821115613b0c5760008155600101613c2e565b508054613c4e9061431c565b6000825580601f10613c5e575050565b601f0160209004906000526020600020908101906106d09190613c2d565b80356001600160a01b0381168114613ab557600080fd5b600060208284031215613ca557600080fd5b6116a482613c7c565b600060208284031215613cc057600080fd5b5035919050565b80356001600160601b0381168114613ab557600080fd5b60008060408385031215613cf157600080fd5b613cfa83613c7c565b9150613d0860208401613cc7565b90509250929050565b600060208284031215613d2357600080fd5b813560ff811681146116a457600080fd5b60008060008060608587031215613d4a57600080fd5b8435935060208501356001600160401b0380821115613d6857600080fd5b818701915087601f830112613d7c57600080fd5b813581811115613d8b57600080fd5b886020828501011115613d9d57600080fd5b60208301955080945050505060408501358015158114613dbc57600080fd5b939692955090935050565b60008083601f840112613dd957600080fd5b5081356001600160401b03811115613df057600080fd5b6020830191508360208260051b8501011115613e0b57600080fd5b9250929050565b600080600080600060808688031215613e2a57600080fd5b85359450602086013593506040860135925060608601356001600160401b03811115613e5557600080fd5b613e6188828901613dc7565b969995985093965092949392505050565b600080600060608486031215613e8757600080fd5b8335925060208401356001600160401b0381168114613ea557600080fd5b929592945050506040919091013590565b60008060008060008060608789031215613ecf57600080fd5b86356001600160401b0380821115613ee657600080fd5b613ef28a838b01613dc7565b90985096506020890135915080821115613f0b57600080fd5b613f178a838b01613dc7565b90965094506040890135915080821115613f3057600080fd5b50613f3d89828a01613dc7565b979a9699509497509295939492505050565b600060208284031215613f6157600080fd5b6116a482613cc7565b60008060208385031215613f7d57600080fd5b82356001600160401b03811115613f9357600080fd5b613f9f85828601613dc7565b90969095509350505050565b600060208284031215613fbd57600080fd5b813563ffffffff811681146116a457600080fd5b60008060408385031215613fe457600080fd5b613fed83613c7c565b946020939093013593505050565b602080825260119082015270494e56414c49445f47414d455f4e414d4560781b604082015260600190565b634e487b7160e01b600052602160045260246000fd5b60005b8381101561405757818101518382015260200161403f565b50506000910152565b6000825161407281846020870161403c565b9190910192915050565b6020808252600c908201526b494e56414c49445f564f544560a01b604082015260600190565b634e487b7160e01b600052604160045260246000fd5b604051601f8201601f191681016001600160401b03811182821017156140e0576140e06140a2565b604052919050565b60006001600160401b0380841115614102576141026140a2565b8360051b60206141138183016140b8565b86815291850191818101903684111561412b57600080fd5b865b848110156141b0578035868111156141455760008081fd5b8801601f36818301126141585760008081fd5b81358881111561416a5761416a6140a2565b61417b818301601f191688016140b8565b915080825236878285010111156141925760008081fd5b8087840188840137600090820187015284525091830191830161412d565b50979650505050505050565b60208082526011908201527024a72b20a624a22fa727a222afaa24a2a960791b604082015260600190565b634e487b7160e01b600052601160045260246000fd5b60006001820161420f5761420f6141e7565b5060010190565b634e487b7160e01b600052603260045260246000fd5b818103818111156105b0576105b06141e7565b6001600160401b03169052565b600281106106d057634e487b7160e01b600052602160045260246000fd5b6142738161424c565b9052565b81548152600182015460208201526002820154604082015260038201546101608201906142b0606084016001600160401b03831661423f565b604081901c60030b6080840152606090811c6001600160601b0390811660a0850152600485015460c0850152600585015460e085015260068501546101008501526007850154908116610120850152906143159061014085019083901c60ff1661426a565b5092915050565b600181811c9082168061433057607f821691505b60208210810361041b57634e487b7160e01b600052602260045260246000fd5b60006020808352835481840152600180850160806040860152600081546143768161431c565b8060a089015260c08583166000811461439657600181146143b0576143de565b60ff1984168a83015282151560051b8a01820194506143de565b856000528760002060005b848110156143d65781548c82018501529088019089016143bb565b8b0183019550505b50505050600287015460ff811615156060880152935061062f6080870160ff8660081c1661426a565b808201808211156105b0576105b06141e7565b6001600160601b03828116828216039080821115614315576143156141e7565b6000602080835260a08301845460018060a01b0381168386015260408160a01c81870152600191508187016080606081818a015285835461447f818990815260200190565b600095865260208620985091505b806003860110156144f35787546001600160401b036144ae8482841661423f565b6144be8b850182848b1c1661423f565b6144ce8885018284891c1661423f565b506144de8484018260c01c61423f565b5096860196600494909401939083019061448d565b9654968085101561451a57614511826001600160401b038a1661423f565b93860193908801905b80851015614540576145378289881c6001600160401b031661423f565b93860193908801905b808510156145665761455d8289861c6001600160401b031661423f565b93860193908801905b808510156145805761457b828960c01c61423f565b908801905b5060028b015460ff169750614597838b018961426a565b9a9950505050505050505050565b60006001600160601b038281166002600160601b031981016145c9576145c96141e7565b6001019392505050565b601f8211156105d857600081815260208120601f850160051c810160208610156145fa5750805b601f850160051c820191505b8181101561067f57828155600101614606565b81516001600160401b03811115614632576146326140a2565b61464681614640845461431c565b846145d3565b602080601f83116001811461467b57600084156146635750858301515b600019600386901b1c1916600185901b17855561067f565b600085815260208120601f198616915b828110156146aa5788860151825594840194600190910190840161468b565b50858210156146c85787850151600019600388901b60f8161c191681555b5050505050600190811b01905550565b6020815281516020820152600060208301516080604084015280518060a085015261470a8160c086016020850161403c565b604085015115156060850152606085015191506147268261424c565b6080840191909152601f01601f191690910160c00192915050565b6020808252600f908201526e50454e44494e475f4449535055544560881b604082015260600190565b6020808252600e908201526d1253959053125117d4915591505360921b604082015260600190565b634e487b7160e01b600052600160045260246000fd5b600382810b9082900b03637fffffff198112637fffffff821317156105b0576105b06141e7565b600381810b9083900b01637fffffff8113637fffffff19821217156105b0576105b06141e7565b602081016148038361424c565b91905290565b6001600160401b03828116828216039080821115614315576143156141e7565b6020808252601590820152744e4f44455f494e56414c49445f5155414e5449545960581b604082015260600190565b6001600160601b03818116838216019080821115614315576143156141e7565b634e487b7160e01b600052603160045260246000fd5b6001600160401b03818116838216019080821115614315576143156141e7565b8051602080830151919081101561041b5760001960209190910360031b1b16919050565b634e487b7160e01b600052601260045260246000fd5b6000826148f7576148f76148d2565b500490565b80820281158282048414176105b0576105b06141e7565b600082614922576149226148d2565b500690565b60008260030b8260030b028060030b9150808214614315576143156141e7565b600061ffff8083168181036145c9576145c96141e7565b80820260008212600160ff1b8414161561497a5761497a6141e7565b81810583148215176105b0576105b06141e756fe696290ea9e8ae371871e662cedb1f2e98bd9651c03132cd383015000fd20192322dd4a5a7bc4acb43f19afd51b41edb1eb84a5e61293e1fc28c040edf0bbeb0f99974f5de33162168ca1ac2d46c1e9342f37deaa311f5f57ea754342cf655b60303c130e8d487dd85c87c89897117f9a0a45df93e2439e165fe87c420a40865e0c02ae36d31cbb3b796437a39db136a56a59b930c54cede59003384ef80f6505a26469706673582212205d2eb841d7ff83b93fffd6748b967b7248bde1afb79bf3382694d6aef319b64f64736f6c63430008110033",
  "linkReferences": {},
  "deployedLinkReferences": {}
}