{
  "_format": "hh-sol-artifact-1",
  "contractName": "OurkadeNode",
  "sourceName": "contracts/ourkade/ourkadeLogicContract/ourkadeNode.sol",
  "abi": [
    {
      "inputs": [
        {
          "internalType": "uint256",
          "name": "index",
          "type": "uint256"
        }
      ],
      "name": "GetNodeIdAtIndex",
      "outputs": [
        {
          "internalType": "bytes32",
          "name": "key",
          "type": "bytes32"
        }
      ],
      "stateMutability": "view",
      "type": "function"
    },
    {
      "inputs": [
        {
          "internalType": "address",
          "name": "key",
          "type": "address"
        },
        {
          "internalType": "uint96",
          "name": "nodeId",
          "type": "uint96"
        }
      ],
      "name": "GetNodeInfo",
      "outputs": [
        {
          "components": [
            {
              "internalType": "address",
              "name": "PlayerProfileId",
              "type": "address"
            },
            {
              "internalType": "uint96",
              "name": "NodeId",
              "type": "uint96"
            },
            {
              "internalType": "uint64[]",
              "name": "LoyaltyLocked",
              "type": "uint64[]"
            },
            {
              "internalType": "enum NodeInfoStatus",
              "name": "Status",
              "type": "uint8"
            }
          ],
          "internalType": "struct NodeInfo",
          "name": "",
          "type": "tuple"
        }
      ],
      "stateMutability": "view",
      "type": "function"
    },
    {
      "inputs": [],
      "name": "GetNodeInfoCount",
      "outputs": [
        {
          "internalType": "uint256",
          "name": "count",
          "type": "uint256"
        }
      ],
      "stateMutability": "view",
      "type": "function"
    },
    {
      "inputs": [
        {
          "internalType": "uint256",
          "name": "_count",
          "type": "uint256"
        }
      ],
      "name": "GetNodeQueueIds",
      "outputs": [
        {
          "internalType": "bytes32[]",
          "name": "",
          "type": "bytes32[]"
        }
      ],
      "stateMutability": "view",
      "type": "function"
    },
    {
      "inputs": [
        {
          "internalType": "uint256",
          "name": "start",
          "type": "uint256"
        },
        {
          "internalType": "uint256",
          "name": "count",
          "type": "uint256"
        },
        {
          "internalType": "uint256",
          "name": "initialRemainingTurns",
          "type": "uint256"
        }
      ],
      "name": "NodeQueueGetEntries",
      "outputs": [
        {
          "internalType": "bytes32[]",
          "name": "",
          "type": "bytes32[]"
        },
        {
          "internalType": "uint256",
          "name": "",
          "type": "uint256"
        },
        {
          "internalType": "uint256",
          "name": "",
          "type": "uint256"
        }
      ],
      "stateMutability": "nonpayable",
      "type": "function"
    },
    {
      "inputs": [],
      "name": "NodeQueueGetLength",
      "outputs": [
        {
          "internalType": "uint256",
          "name": "",
          "type": "uint256"
        }
      ],
      "stateMutability": "view",
      "type": "function"
    },
    {
      "inputs": [
        {
          "internalType": "uint256",
          "name": "_tier",
          "type": "uint256"
        }
      ],
      "name": "NodeQueueTierGet",
      "outputs": [
        {
          "internalType": "uint64",
          "name": "",
          "type": "uint64"
        },
        {
          "internalType": "uint256",
          "name": "",
          "type": "uint256"
        }
      ],
      "stateMutability": "view",
      "type": "function"
    },
    {
      "inputs": [
        {
          "internalType": "address",
          "name": "key",
          "type": "address"
        },
        {
          "internalType": "uint96",
          "name": "nodeId",
          "type": "uint96"
        }
      ],
      "name": "checkNodeInfo",
      "outputs": [
        {
          "internalType": "bool",
          "name": "",
          "type": "bool"
        }
      ],
      "stateMutability": "view",
      "type": "function"
    }
  ],
  "bytecode": "0x608060405234801561001057600080fd5b50610e22806100206000396000f3fe608060405234801561001057600080fd5b50600436106100785760003560e01c80633b7b4aa91461007d5780634d547dac146100a85780635eae8940146100be5780637e80610d146100de5780638f9d90f6146101015780639867f31c14610114578063cde4a4bd14610134578063dd7f790d1461013c575b600080fd5b61009061008b366004610b55565b61016e565b60405161009f93929190610bbc565b60405180910390f35b6100b061018d565b60405190815260200161009f565b6100d16100cc366004610be1565b61019c565b60405161009f9190610c6a565b6100f16100ec366004610be1565b6101b7565b604051901515815260200161009f565b6100b061010f366004610cfe565b6101c3565b610127610122366004610cfe565b6101ce565b60405161009f9190610d17565b6100b06101d9565b61014f61014a366004610cfe565b6101e3565b604080516001600160401b03909316835260208301919091520161009f565b606060008061017e8686866101f8565b92509250925093509350939050565b600061019761041f565b905090565b6101a4610b2f565b6101ae8383610439565b90505b92915050565b60006101ae838361053a565b60006101b182610590565b60606101b1826105b1565b600061019761065a565b6000806101ef83610672565b91509150915091565b6060600080600061020761041f565b9050600081116102515760405162461bcd60e51b815260206004820152601060248201526f4e4f44455f51554555455f454d50545960801b60448201526064015b60405180910390fd5b80871061029b5760405162461bcd60e51b81526020600482015260186024820152771393d11157d45551555157d253959053125117d4d510549560421b6044820152606401610248565b866000806102a76106f9565b90506000896001600160401b038111156102c3576102c3610d2a565b6040519080825280602002602001820160405280156102ec578160200160208202803683370190505b5090508860006102ff600d85018761071d565b905060005b8c86101561040b578061031681610d56565b9150505b60008311801561032957508c86105b1561039257600082815260108601602052604090205460ff161515600103610354576000925061031a565b8184878151811061036757610367610d6f565b60209081029190910101528561037c81610d56565b965050828061038a90610d85565b93505061031a565b82600003610406576103a5600189610d9c565b87036103c657600096506103b7610747565b6103bf61041f565b97506103d4565b866103d081610d56565b9750505b6103e1600d86018861071d565b915060006103ee83610816565b90506104028160200151826000015161085f565b9350505b610304565b50919c949b50995092975050505050505050565b60008061042a6106f9565b600e8101549091505b91505090565b610441610b2f565b61044b83836108ab565b6040805160808101825282546001600160a01b0381168252600160a01b90046001600160601b03166020808301919091526001840180548451818402810184018652818152939594860193928301828280156104f857602002820191906000526020600020906000905b82829054906101000a90046001600160401b03166001600160401b0316815260200190600801906020826007010492830192600103820291508084116104b55790505b5050509183525050600282015460209091019060ff16600181111561051f5761051f610c32565b600181111561053057610530610c32565b9052509392505050565b6000806105456106f9565b905060006105786040518060400160405280866001600160601b03168152602001876001600160a01b031681525061090a565b9050610587600a830182610964565b95945050505050565b60008061059b6106f9565b90506105aa600a82018461071d565b9392505050565b606060006105bd6106f9565b90506000836001600160401b038111156105d9576105d9610d2a565b604051908082528060200260200182016040528015610602578160200160208202803683370190505b50905060005b8481101561065257600061061f600d85018361071d565b90508083838151811061063457610634610d6f565b6020908102919091010152508061064a81610d56565b915050610608565b509392505050565b6000806106656106f9565b600b810154909150610433565b600080600061067f6106f9565b9050806015015484106106c85760405162461bcd60e51b815260206004820152601160248201527024a72b20a624a22fa727a222afaa24a2a960791b6044820152606401610248565b60009384526016810160209081526040808620546017909301909152909320546001600160401b0390931693915050565b7f3811155c0a13998f1918d4b7c42705baf10874a2b3c97697256081485ee6634790565b600082600101828154811061073457610734610d6f565b9060005260206000200154905092915050565b60006107516106f9565b600f810154601a82015491925090600090821161076e5781610774565b82601a01545b905060015b818111610810576000600f85016107908386610d9c565b815481106107a0576107a0610d6f565b60009182526020909120015490506107bb600d8601826109b4565b60008181526010860160205260409020805460ff19169055600f85018054806107e6576107e6610daf565b6001900381819060005260206000200160009055905550808061080890610d56565b915050610779565b50505050565b604080518082019091526000808252602082015260405180604001604052808360a01c6001600160601b0316815260200161084e8490565b6001600160a01b0316905292915050565b60008061086c84846108ab565b905060006108786106f9565b600183810154919250601783019160009161089291610d9c565b8152602001908152602001600020549250505092915050565b6000806108dd6040518060400160405280856001600160601b03168152602001866001600160a01b031681525061090a565b90506108e98484610ad5565b60006108f36106f9565b6000928352600c0160205250604090209392505050565b6000816000015160a01b826020015160601b60405160200161094c9291906001600160a01b03199290921682526001600160601b031916600c82015260200190565b6040516020818303038152906040526101b190610dc5565b6001820154600090810361097a575060006101b1565b60008281526020849052604090205460018401805484929081106109a0576109a0610d6f565b906000526020600020015414905092915050565b6109be8282610964565b610a285760405162461bcd60e51b815260206004820152603560248201527f556e6f7264657265644b65795365742831303229202d204b657920646f6573206044820152743737ba1032bc34b9ba1034b7103a34329039b2ba1760591b6064820152608401610248565b60018281018054600092610a3b91610d9c565b81548110610a4b57610a4b610d6f565b6000918252602080832090910154848352908590526040808320548284529220829055600185018054919350839183908110610a8957610a89610d6f565b600091825260208083209091019290925584815290859052604081205560018401805480610ab957610ab9610daf565b6001900381819060005260206000200160009055905550505050565b610adf828261053a565b1515600114610b2b5760405162461bcd60e51b81526020600482015260186024820152771393d11157d2539193d7d113d154d7d393d517d1561254d560421b6044820152606401610248565b5050565b604080516080810182526000808252602082018190526060928201839052909182015290565b600080600060608486031215610b6a57600080fd5b505081359360208301359350604090920135919050565b600081518084526020808501945080840160005b83811015610bb157815187529582019590820190600101610b95565b509495945050505050565b606081526000610bcf6060830186610b81565b60208301949094525060400152919050565b60008060408385031215610bf457600080fd5b82356001600160a01b0381168114610c0b57600080fd5b915060208301356001600160601b0381168114610c2757600080fd5b809150509250929050565b634e487b7160e01b600052602160045260246000fd5b60028110610c6657634e487b7160e01b600052602160045260246000fd5b9052565b602080825282516001600160a01b031682820152828101516001600160601b031660408084019190915283015160806060840152805160a0840181905260009291820190839060c08601905b80831015610cdf5783516001600160401b03168252928401926001929092019190840190610cb6565b5060608701519350610cf46080870185610c48565b9695505050505050565b600060208284031215610d1057600080fd5b5035919050565b6020815260006101ae6020830184610b81565b634e487b7160e01b600052604160045260246000fd5b634e487b7160e01b600052601160045260246000fd5b600060018201610d6857610d68610d40565b5060010190565b634e487b7160e01b600052603260045260246000fd5b600081610d9457610d94610d40565b506000190190565b818103818111156101b1576101b1610d40565b634e487b7160e01b600052603160045260246000fd5b80516020808301519190811015610de6576000198160200360031b1b821691505b5091905056fea26469706673582212204b9ff4105cf7b0a33f32330a0768d53d9e882ea369ae1820c1fdfb559f823ab664736f6c63430008110033",
  "linkReferences": {},
  "deployedLinkReferences": {}
}